:020000040801F1
:102000009751030093818195175104001301817F3B
:1020100017E501001305854497450300938585FE68
:10202000174603001306861C63FAC50083320500B9
:1020300023B055002105A105E3EAC5FE17450300BD
:102040001305451B974504009385C5C86377B50004
:10205000233005002105E36DB5FE17C5010013050A
:1020600025D4EFB05152EFB05171970000004111EB
:1020700006C401458145EF00400419A801A08280F3
:0220800082805C
:082088005E27010800000000C2
:10209000411122E006E497C701009387E73C2A84B8
:1020A00081C78145EFC0013C9387818888633C6587
:1020B00091C382972285EFC081475971A2F086F4BF
:1020C000A6ECCAE8CEE4D2E056FC5AF85EF462F020
:1020D0008018970700009387476A17470300233B40
:1020E000F736970700009387676917470300233F78
:1020F000F736970700009387476D1747030023378C
:10210000F738970700009387276E17470300233F90
:10211000F738974703009387E73373905730F3E717
:102120005030F367443093070008F3A747308567C2
:102130009B870780F3A74730F3670430EF60306771
:102140002145EF00B0539386818197D7030023B3D5
:10215000A76AB68517F800001308A81A9717000099
:102160009387A7B601473686174503001305052553
:10217000EFA020291745030013054524EFA02032C6
:102180001745030013058523EFA0003297050000D3
:102190009385657E1745030013054522EFA0603443
:1021A000970500009385A56B1745030013050521CE
:1021B000EFA0A039974403009384442083C71405FB
:1021C000918B638A0736174503001305251FEF70AF
:1021D000306C974403009384641E2685EF7050583A
:1021E00063040536930684F9170600001306666F2C
:1021F000B68517C5010013056536232C04F8EF607A
:10220000F036832784F96387073497C501009385E7
:10221000E5360145EF50102097C50100938505383C
:102220000545B7C4B761EF50F01E938484C9EF50E1
:1022300010110145EF00700D63D4A432EF50501817
:102240000145EF00900C5567130707183347E50267
:1022500037080B001B08C8A601273B080701931786
:10226000080263D50730B7C708009B87C7FB3D9FAF
:10227000B74702009B8717AB3B47F702B7C6FDFF86
:102280009B86F654A5679B85C7EA130E405B9308AF
:102290000019BB06D7023B880601BB55B8029B86D6
:1022A00047E9930790093B56C803BB850501919DFB
:1022B000374602001B0606AB3B56C8023B86C540AC
:1022C0009305D0163B53B602BB56D6023B56C60307
:1022D000BB860601BB856502919E8D9E95453B861A
:1022E000D50285261B0826003B56F802BB87C7028D
:1022F0008927BBD7B7023B87E8029D9E9307905F73
:102300003B0767000D4363F307015D539305C0036B
:1023100085673348B502938707E13B066600B347FC
:10232000F502B368B502174503001305A5CD336860
:10233000B802E145B3E7B70297C5010093850528C8
:10234000EF102068974603009386C6CB17C601009E
:102350001306462993050004174503001305850B52
:10236000EF10E06893050004174503001305850A84
:10237000EFC0E10401256342A020F32400B0014531
:10238000EF00A078258D0125EFB0116BEFB0B16F94
:10239000AA8617C601001306662693050004174592
:1023A000030013052507EF1080649305000417450B
:1023B000030013052506EFC0810001256349A01E17
:1023C0003D4697C501009385652D130504FAEFB0CE
:1023D0001145EFB0516B2A8697C5010093850523FF
:1023E000130504FAEF10E05D930604FA17C6010026
:1023F0001306C62293050004174503001305850143
:10240000EF10E05E930500041745030013058500F7
:10241000EFB0F17A01256346A01C17C60100130630
:10242000E62093050004174503001305A5FEEF10F1
:10243000005C93050004174503001305A5FDEFB0EC
:10244000117801256349A01C032584F9930504FA3A
:10245000EF005052EF00F05DEF00105C6307051EC7
:1024600017C601001306061E930500041745030056
:10247000130545FAEF10A057930500041745030014
:10248000130545F9EFB0B17301256346A01C17C6CB
:1024900001001306A61E930500041745030013054B
:1024A00065F7EF10C05493050004174503001305AA
:1024B00065F6EFB0D17001256349A01C974A03006F
:1024C000938ACAEF054B154A97CB0100938B8B1C5F
:1024D000054573003000EF00C0505685EF00101521
:1024E0009747030083C797F28983858BF5D3EF0065
:1024F000705319C1EF00F053EF00105271D9974497
:1025000003009384A4E6268C81491B8909004A852F
:10251000EF00304383470500638B071C4A85EF00BB
:1025200050423D4693051C000505EFB05164631809
:1025300005184A8579AA2685EF00500FEF00604AFA
:102540000545730030009DB9EF00A04905457300B3
:10255000300061B1EF00E04805457300300055B12F
:10256000EF002048054573003000E1B13747020015
:102570001B0717AB3B47E80211B31358454001470F
:1025800097480300938808E909439B174700C697BB
:102590009A859063946709457300300009C5052743
:1025A000E355E8FED9BB014573003000F9BF13586D
:1025B00045400147974803009388C8E509439B17A6
:1025C0004700C6979A859063946709457300300069
:1025D00009C50527E355E8FEE5B301457300300062
:1025E000F9BF13584540014797480300938888E294
:1025F00009439B174700C6979A85906394670945DE
:102600007300300009C50527E355E8FE39B50145DB
:1026100073003000F9BF1358454001479748030045
:10262000938848DF09439B174700C6979A859063B4
:10263000946709457300300009C50527E355E8FE96
:1026400021B5014573003000F9BFEF008039054521
:102650007300300011B513584540014797480300F7
:10266000938848DB09439B174700C6979A85906378
:10267000946709457300300009C50527E355E8FE56
:1026800039B5014573003000F9BF13584540014783
:1026900097480300938808D809439B174700C697BB
:1026A0009A859063946709457300300009C5052732
:1026B000E355E8FE21B5014573003000F9BF639D85
:1026C00069010545EF00F027AA850545EF00C038F0
:1026D0000545EF00B02821A84A85EF009026CA855D
:1026E00010611465094573003000E31405E4852981
:1026F000410CE39C49E1130504FAEFB0314659055A
:1027000041990A8C3301A140930504FA0A85EFB080
:10271000D143DE850A858A89EFB0B13FF377443033
:10272000014983C7040085C7A6854A85EF00C032EA
:1027300009CD4E85EFB091424E959B070903A30F3B
:10274000F5FEA6854E85EF00903123800400052913
:10275000C104E31849FDF3674430628195BB97E7F4
:10276000FEF79387278A99C717B5010013054563BC
:102770006FB06161828001A05D713EF042EC46E87D
:10278000AAE4AEE032FC36F83AF4814797480300F9
:102790009388C8BD1548BE850D457300300011C52E
:1027A00013974700469710E314E78507E39507FF63
:1027B000266586656276C276227782776268C2680D
:1027C00061617300203001113EE42AEC2EE8FD57D0
:1027D000BE851945730030006265C265A267056158
:1027E0007300203075713EFCB707200CA2F4C04383
:1027F00006E516E19AFC9EF8AAF0AEECB2E8B6E463
:10280000BAE042F846F472F076EC7AE87EE401240D
:1028100093070004630DF40293076004630CF40251
:10282000B707200CC0C32674AA608A626673C67399
:102830000675E6654666A6660667E2774278A27880
:10284000027EE26E426FA26F496173002030EF108A
:10285000F06FF9B7EF103071E1B7411106E483472B
:10286000150597C601009386E6E78983858B89C79E
:1028700097C60100938686E617C60100130606E791
:1028800093050004174503001305C5B8EF10201683
:1028900093050004174503001305C5B7EFB03132A7
:1028A00001256357A002135845400147974803008C
:1028B000938848B609439B174700C6979A8590634B
:1028C000946709457300300019C50527E355E8FEF4
:1028D000A26041018280014573003000E9BF797137
:1028E00022F026EC06F4AA862E84B28417C70100D3
:1028F000130747C499C52AE42E85EF806070A2664D
:102900002A8717C601001306E6C39305000417457E
:102910000300130525B0EF10800D93050004174543
:102920000300130525AFEFB0912901256349A000ED
:102930001C40A27002749CC0E264456182801358FE
:1029400045400147974803009388C8AC09439B174B
:102950004700C6979A8590639467094573003000D5
:1029600009C50527E355E8FEE1B7014573003000CE
:10297000F9BF411106E4EF80A068AA8617C60100DE
:102980001306C6D89305000417450300130585A850
:10299000EF10E0059305000417450300130585A714
:1029A000EFB0F12101256357A002135845400147BC
:1029B00097480300938808A609439B174700C697CA
:1029C0009A859063946709457300300019C50527FF
:1029D000E355E8FEA26041018280014573003000AA
:1029E000E9BF797122F005644AE84EE406F426EC6A
:1029F0001B04048097D903009389C9DF174903009A
:102A00001309C99BF337443003B50900EF00204D8B
:102A1000AA84F327443011C983370901CA858297F4
:102A200075D12685EF90304CF1BFEFE0E02DEFE05F
:102A300040350125FD57630AF500B7D7030093879A
:102A40000709BE851D4573003000A2700274E26460
:102A50004269A26945618280011126E4AA8417C5F2
:102A600001001305A5C422E806EC2E84EFB0710C1A
:102A700015E1AA8717C701001307C7C3A68510630E
:102A80001467094573003000E2604264A2643E8529
:102A900005618280A28517C50100130525C2EFB02C
:102AA0005109AA8711E517C70100130727C2F9B713
:102AB000A28517C501001305E5C1EFB09107854751
:102AC00061F56FF0EFD3C9B711457300300093077C
:102AD000803E3305F502B7470F009387072433552F
:102AE000F50201258280AA8711457300300037471F
:102AF0000F00130707243355E50282178193898F4E
:102B0000173703002338F76E82802A871145730038
:102B10003000B7470F00938707243355F5029737E6
:102B200003009387276D9C633E9511C308E3828061
:102B3000797122F006F43384C50063988500A27091
:102B4000027490E201454561828036EC32E82EE461
:102B5000EFB06173A265E26642662380A500850539
:102B6000E9BF8280797122F026EC4AE84EE406F44F
:102B70002E892E84814497A903009389A99305EC9B
:102B800083560901014717A603001306A692814543
:102B900017E50300130585C5EF101012054781479F
:102BA0006303E500D157A2700274E2644269A2692E
:102BB0003E8545618280035624010C64338599006B
:102BC000EFB0E145835724010060BD9CC214C19061
:102BD0007DB797370300938767629C6379714EE4F2
:102BE00006F422F026EC4AE852E0AA89B1CB93958C
:102BF0000603C191B1C5328A014513062018EF9032
:102C0000B035AA8415CD2A840149931509020356CB
:102C1000240108648191D295EFB06140835724016B
:102C200000603B89270175F017D40300130484BCAE
:102C30000860EF00E02719ED0860A685EF00202866
:102C40000274A270E2644269026A4E85A26945611B
:102C50006F10F0022685EF901029DDB7F37704306E
:102C600093070008F3B7073082809B07F5FF93F7BF
:102C7000F70F1307E0026369F7009B07050105459D
:102C80003315F5007325453082809B07F5FF93F7D8
:102C9000F70F1307E0026369F7009B07050105457D
:102CA0003315F500733545308280011106EC73252C
:102CB00000302AE4EFF09FFAE2602265056182802D
:102CC000731005308280117186FDA2F9A6F5CAF154
:102CD000CEEDD2E9D6E597870000938767D01CED4B
:102CE00097070000938747E81CF19737030023B745
:102CF000A750B7070112938707C03EC095672A8483
:102D00001946938747638A851305A5042312F100AA
:102D1000EFB0E1309307C05D2314F404B727656E6C
:102D2000938767A03CC82800EF10402E9307F0035C
:102D3000BEC08357A4042547BAC62312F1048357A3
:102D4000C40441472C002313F1048357E40417E51E
:102D500003001305A5A917E40300130424A92314F1
:102D6000F10485473EDB961791073EE49737000054
:102D7000938787C93EF0973700009387A7D13EF429
:102D800097370000938707DA3EF89727000093876C
:102D9000873E3EE8973700009387A7B4BAC83EEC59
:102DA000EF10302A1C64170600001306C6DB8145AD
:102DB00098432285173903001309C96F01275D9BCA
:102DC00098C3094723A0E75A984381443D4A012705
:102DD0001367870098C3EF10B01A17060000130698
:102DE00086DF81452285EF10101C979A0300938A95
:102DF0006A0CC14963884403014781464A8681457C
:102E000022858524EF10404A13090960E39434FFBA
:102E1000EE704E74AE740E79EE694E6AAE6A01457C
:102E2000116182807D5781465686D1BF411122E0D3
:102E3000014681452A8417E503001305259B06E416
:102E4000EF1060350146814517E503001305059A2B
:102E5000EF10603411C98547631EF50022850264B6
:102E6000A26041016F90406822850264A260410126
:102E70006F90C06BA260026441018280011126E460
:102E8000AA84614506EC22E8EFB0C1152A841395A7
:102E90003400EFB02115FD57819308E004C42326C8
:102EA00004001CE82285E2604264A264056182801D
:102EB0005C4908453385A740133515008280584981
:102EC0001445630DD7001C4905278527BBE6D702AB
:102ED0001C6114C98E06B6978CE358C98280544988
:102EE000AA878DC258451061FD36931537002E967E
:102EF00008622330060090470527D4CB3B67C70202
:102F0000D8C78280014582809737030093870725C1
:102F10009C437D576387E70261473388E702173791
:102F200003001307A70F01451B03060042971B0868
:102F3000050063586800033807018338870063651C
:102F40001801858A91EE82809308180023381701B2
:102F5000B388A50083C80800050523001801C1BF78
:102F60007971173703001307A71F4AE803290700E1
:102F700006F422F026EC4EE411476362270717A7F8
:102F80000300130727E412093305270183460500D0
:102F9000BA84B1E69B0906004147B28763733701E3
:102FA000C1473284139607034192EFB0013FBD47FA
:102FB000228663F337013D4642163387240141924E
:102FC0003A96FD572300060017370300232AF71807
:102FD000A2700274E2644269A26945618280FD5672
:102FE000E388D7FE8527370700029B972700BA970B
:102FF000054798C39737030023A2D716D1BF011105
:103000002E8522E806EC26E44AE02E84EFB0013556
:10301000954763F1A7041309A5FF2299AA841546D1
:1030200097C50100938505BD4A85EFB041340DE990
:1030300026948347F4FF11479B8707FD6373F700CE
:10304000FD5717370300232DF710FD5717370300DF
:103050002326F710E2604264A2640269056182805F
:10306000154697C50100938565B94A85EFB02130B3
:1030700075F126940347F4FF8D469B07F7FC63FD2B
:10308000F600FD5717370300232AF70CFD571737B3
:1030900003002327F70C7DBF9736030023A0F60C0F
:1030A0007D57E385E7FE6147B387E70217370300E3
:1030B0001307C7F6BA97986398EBC9BF51E27971C5
:1030C00006F422F026EC00184AE8AE861706000047
:1030D0001306C6E32338B4FC97050000938565F218
:1030E000AA84EF40203197A703009387A79C8C63A5
:1030F0000A892E85233CB4FCEFB04126490583356F
:1031000084FD41993301A1400A85EFB0012497C5A0
:1031100001009385A5AD0A85EFB0A11F033704FD1B
:103120008A852685854781460946EF40C01A4A812F
:10313000130104FDA2700274E26442694561828059
:103140008280914763EAA7009317450017A5030003
:10315000130545C73E95828001458280914763EA09
:10316000A700120597A703009387C7C53E952300C4
:1031700005008280011126E44AE013068003AE8434
:103180002A89814517A503001305459306EC22E81B
:10319000EFA0B16C17A403001304C491930780251A
:1031A000231CF40097C701009387C7A51CF426854C
:1031B00089472308F40204E0EFB0411A1D05EFA08F
:1031C0007162A685EFB0611897C50100938505A4CB
:1031D000EFB0211408F081479308E01D17B80100F3
:1031E0001308C87A01479306900717C60100130613
:1031F000E6979305702517B501001305A553EF3029
:10320000A05108FCE26042649737030023AC27FF1B
:10321000A26402690561828017A503001305858DEC
:103220006F40E04517A503000345658D1335150074
:103230008280096697A703009387C787014797068F
:1032400000009386E6E71306362B97350300938537
:1032500065FB17A503001305E5896F40201A0111CE
:1032600022E82A842E8506EC2EE4EFB0210FA285F9
:1032700042642266E2609316050381480148814753
:103280000947C19217A503001305C58605616F3074
:1032900010706375D600B2952380A500828082806D
:1032A0001971CAF0CEECD2E8D6E45EFC86FCA2F836
:1032B000A6F4DAE062F8B68AAA892E8AB28B0A49A5
:1032C000AA4611E3BD9A13F50640012511C129C78D
:1032D00093F506021306100699C1130610043A83EB
:1032E000130E01010147A54F9B0566FF130F000256
:1032F000B37E030313F6FE0F63EADF051B06060326
:103300001376F60F2300CE000507335603036365DB
:103310000301050E631AE70313FB2600012B368613
:10332000631E0B0493F516006307090089C599E332
:10333000318A11C27D391393080213530302130615
:103340000002130E000319A832835DB72D9E4DBFF6
:103350000008B30EE4002380CE0105076374670004
:10336000E318C7FE13130902135303027D46130E1D
:10337000000389C5637467006374E60413F60601ED
:1033800051C239E531C7821893D808026307170183
:10339000131609020192631DC7021306F7FF05CA3F
:1033A000C14579176309B802328709466312C80418
:1033B0007D466364E60610183A969305200635A00C
:1033C0000008B30EE4002380CE0105075DB7014776
:1033D0004146E31CC8FC13F6060249E27D46636ED3
:1033E000E60210183A96930580072300B6FE0507FB
:1033F0007D466364E60210183A96930500032300A5
:10340000B6FE05077D46636AE600ADC31C18BA9791
:103410001306D0022380C7FE05078D8A5E86D1C6BB
:103420003A84B304C70026853386844049E4630B9D
:103430000B000219B38474411359090233859B00B0
:1034400063E42409E6704674A6740679E669466A60
:10345000A66A066BE27B427C096182807D46E36E50
:10346000E6FA10183A969305800541B793F746009F
:1034700091C71C18BA971306B00269BF93F786006C
:10348000C9DF1C18BA971306000269B7D686D28521
:10349000130500023AE4130C160082992267628633
:1034A000B387C400E3E487FEA5BF13140902B30485
:1034B00077410190F5B77D141C08A29703C507005A
:1034C000D686D285829985B72A86D686D285130577
:1034D0000002829985049DB735714AE1CEFCD2F88D
:1034E000D6F46EFC06ED22E926E5DAF0DEECE2E841
:1034F000E6E4EAE02E8A3289B68DBA8A970900009E
:10350000938929DA91C1AA89416B81447D1BA94B1A
:1035100099A693075002850D6308F50013841400E3
:10352000CA862686D28559A181461307B002930523
:1035300000021305300221A81304D002638F870212
:10354000130400036391870293E61600B28D83C7CC
:103550000D0013861D006385E702E36FF7FC6384AB
:10356000B7026385A7021B8707FD1377F70FA545F1
:1035700063E9E506014C254625A093E62600F9B748
:1035800093E64600E1B793E68600C9B793E60601E5
:1035900075BF3B838B03AE8D1B0303FD3B0CE30028
:1035A00003C70D0093851D009B0707FD93F7F70FD9
:1035B000E371F6FE03C70D009307E002814863172D
:1035C000F70603C61D00A54513871D009B0706FDD2
:1035D00093F7F70F93E6064063E9F512BA8D254697
:1035E00025A81307A002014CE396E7FC83A70A0075
:1035F00013878A001B8C070063D6070093E626001A
:103600003B0CF040BA8AB28D75B7BB881B03AE8DF8
:103610009B8808FDBB88E80003C70D0093851D004B
:103620009B0707FD93F7F70FE371F6FE83C70D00C5
:103630001306A00613871D006384C710636AF60E85
:10364000130680066389C71003C50D009307900613
:10365000850D6302F50263E2A71293072006630C4F
:10366000F50063E5A71093075002630AF53293074C
:103670008005E315F5EA93078007630EF53293079B
:1036800080056308F5329307F0066308F532930767
:1036900020066306F53293079006BD9A2948630712
:1036A000F500930740066303F500CD9A93F70640B3
:1036B00091C3F99A13F7062013069006B6870127DF
:1036C0006306C500130640066312C512631507188A
:1036D000021813F706101358080213848A00B687DD
:1036E00069CF83B70A0036E462E013D7F743334665
:1036F000F7003307E640FD932686CA86D2854E85BD
:10370000EFF01FBAAA84A28AB9A29307A002631F8E
:10371000F60083A80A0093878A0013970802635370
:10372000070081488128890DBE8A09B7BA8DFDBD81
:103730001306C0066389C7001306A007E396C7F007
:1037400093E6061039A803C61D00E31BF6FE93E6B8
:103750000630890DD5BD03C61D006306F60093E64D
:103760000608BA8DD5B593E6060CE5B79307300683
:103770006300F50C93074006EDBD93073007630621
:10378000F51463E5A7029307F006E306F5EE930749
:103790000007E315F5D893E61602C14703B70A0000
:1037A00013848A0036E43EE04148B1A893075007ED
:1037B000E303F5EC930780076DBD13F7060411CF03
:1037C00083C70A001BD7F74133C6E70036E462E03F
:1037D0009BD7F7013B07E64005B793F7070881C77A
:1037E00083970A00C5B783A70A00E9BF2DE702182F
:1037F00013F707101358080213848A0019C703B778
:103800000A0036E462E08147C5BD13F6070403A74A
:103810000A0009CA1377F70F021736E462E08147FE
:103820000193D9BD93F70708E5DB33776701EDB75F
:10383000898A1B8406002DCC2686854C03C50A0088
:10384000CA86D285138D8A0093041600829919C006
:1038500063E28C07EA8A03C50D00E31C05CA2686CD
:1038600063E424011306F9FFCA86D28501458299D3
:10387000EA604A641B8504000A69AA64E679467A0C
:10388000A67A067BE66B466CA66C066DE27D0D6142
:103890008280CA86D28513050002829933069D0074
:1038A0009B0C2D00050D1B070D00E36487FF79B706
:1038B000014DEDB7268613841400CA86D285130500
:1038C00000028299852CA28461B7138D8A0083BC83
:1038D0000A00FD5763850800939708028193338699
:1038E000FC00E68783C5070099C1631AF60293FAC4
:1038F0000640812ABB87974163880A00468663F3A6
:1039000017013E869B070600898A1B84060011E486
:103910001B88170063E78701C287268689A0850771
:10392000D1B7138E140042F446F072EC2686CA8694
:10393000D2851305000282992278626E8278C2874E
:10394000F284F9B7B688130816003EF446F042EC4C
:10395000CA86D285829962688278A2774286B30647
:103960009640E69603C5060019C5E38E0AFC9B86C1
:10397000F8FFE39908FCB284E30E04EC3B84C740F3
:1039800011A82686938A1400CA86D28513050002E0
:103990008299D684BB079400E3E587FF65BD138455
:1039A0001400CA862686D285130550028299A28405
:1039B0005DB593E606024148CDB92148DDB109481D
:1039C000CDB15D7132F036F43AF8AE861810AA85A2
:1039D0007D56170500001305058C06EC3EFCC2E081
:1039E000C6E43AE4EFF05FAFE260616182805D714E
:1039F00036F43AF8B28638102E86AA8517050000EC
:103A00001305658906EC3EFCC2E0C6E43AE4EFF03B
:103A1000BFACE2606161828083378554011122E886
:103A200006EC1306B1006C002A84829705C9184081
:103A300015CB1C68DC43B2460946812793F7C7BF04
:103A40006394C60293E707400346B10085466314BA
:103A5000D60093E7270019CF18685CC3E260426480
:103A6000056182801C64F9B70546E39FC6FC93E7B5
:103A70001700D9BF1864D5B75D714AF81309004B18
:103A800033892503A2E0E14726FC86E44EF452F098
:103A900056EC5AE85EE4330425010327044462E04F
:103AA000AA84021701933307F702B3072701AA97E5
:103AB00083A7071A858B8DE398641C43918BE1C320
:103AC000A6600664E2744279A279027AE26A426BE5
:103AD000A26B026C61618280930B6009B38B7503EA
:103AE000130B091A5A97916A2A97414AFD1A9B8922
:103AF0000500614C83278443033884428527232CA7
:103B0000F4425443033504490C438126B3F656016D
:103B1000939706028193AA97036687002338F44897
:103B200083270444E199821582178193DE97938756
:103B300047078E07A6979C63819102164D8E2685B6
:103B4000CE8502988327044485272320F4448327C5
:103B50000444BD8B2320F4448327044482178193BB
:103B6000B387870333876701CA97A69783A7071A86
:103B70002697858BB1D37D1AE31E0AF635BF1C4309
:103B8000812793E747001CC325BF9307004BB387EA
:103B9000F50259715AF8A2F0A6EC86F4CAE8CEE410
:103BA000D2E056FCAA9703BB87455EF462F066EC50
:103BB0006AE8054723A8E74483270B002A84AE84DC
:103BC00081273EC41C41638F0720833A0501A24729
:103BD000938B0A02D10A898B8DC3894723A0FB00EE
:103BE0002320FB00A6852285EFF01FE99307004BF9
:103BF000B387F402A29723A40744A24793F70708C8
:103C0000A5C783A70A0093F70702B9CF1309004B92
:103C1000338924039307000223A0FA0093070008C6
:103C20002320FB00E147130C6009C14C1B8D0400ED
:103C3000330A240183294A43338C8403130909027C
:103C4000821993D90902B389F902CA99A2998327E3
:103C50000A438127639B971983370A48229913697E
:103C60001900012923A02701A247812793F7D7F73D
:103C700063850714A24793F707409DC7914723A088
:103C8000FB00930700402320FB009307004BB38702
:103C9000F402A29703A78744052723A4E74403B7A8
:103CA000074A050723B0E74AA247918B95CB854782
:103CB00023A0FB0091472320FB00A6852285EFF07F
:103CC000BFDB9307004BB387F402A29703B7074A01
:103CD000050723B0E74A03A78744052723A4E74441
:103CE000A2470567130707808127F98F8DCFA1476A
:103CF00023A0FB009307001023A0FA002320EB0071
:103D00001C406387071218681C43812793E747000C
:103D10001CC39307004BB387F402A29703B7874AEB
:103D2000050723B4E74AA24713971703635A07000E
:103D300091672320FB008337044D85072338F44C1B
:103D4000A24713972703635A070089672320FB00C4
:103D50008337044E85072330F44EA2471397370369
:103D6000635A070085672320FB008337844D85074E
:103D7000233CF44CA2476177130797378127F98FCB
:103D80003EC4A247812795CBA24793F70704DDC322
:103D9000930700042320FB00C14623A0DA0023A0E0
:103DA000FB009307004BB387F402A29703B7874B3E
:103DB000050723BCE74A23A8D7429307004BB384E7
:103DC000F402A6704669A669066AE27A427BA27B83
:103DD000027CE26C2694232804440674E664426D57
:103DE00065618280833A8500DDB383A7490013971C
:103DF0000702E35B07E603370A4219CF83274A43EA
:103E00004E86EA8582178193E297938747068E074D
:103E1000A29794632285029783270A43E1098527A5
:103E20002328FA4283274A438527232AFA4205B5E5
:103E30001864D9BD0290B24785273EC6EDBFF3276F
:103E400040F11147636EF70897B60100938686DC50
:103E50008A07B69798439B575500821736977D89F6
:103E6000F98302873727000CBA97984385463B951C
:103E7000A600598D012588C382803727000CBA9788
:103E800003A7070885463B95A600598D012523A069
:103E9000A70882803727000CBA9703A70718854622
:103EA0003B95A600598D012523A0A71882803727AE
:103EB000000CBA9703A7072885463B95A600598DA5
:103EC000012523A0A72882803727000CBA9703A7D3
:103ED000073885463B95A600598D012523A0A738B4
:103EE0008280F32740F11147636CF70817B7010090
:103EF000130787D38A07BA9794439B5755008217B5
:103F0000BA96F9833727000C7D89BA978286904349
:103F100085463B97A6001347F7FF718F012798C38B
:103F2000828083A6070805473B17A7001347F7FFC2
:103F3000758F012723A0E708828083A6071805470D
:103F40003B17A7001347F7FF758F012723A0E7183A
:103F5000828083A6072805473B17A7001347F7FF72
:103F6000758F012723A0E728828083A6073805479D
:103F70003B17A7001347F7FF758F012723A0E738EA
:103F8000828041C5011122E819462A841305855112
:103F900026E406ECAE84EFA0810883C7140003C7B3
:103FA000040083C65400A207D98F03C72400A206C9
:103FB0004207D98F03C7340062075D8F83C744006F
:103FC0000127DD8E1C40A1C31C6823A4E70823A69B
:103FD000D7088326C44E37D7F1AA13075705812681
:103FE000638EE60023AA070823A8070823AE070864
:103FF00023AC070823A2070A23A0070AE260426451
:10400000A264056182801C64C9B7828019E10290B4
:104010008280411122E0130660072A84814513053E
:10402000250406E4EFA061038D47A6173CF0854701
:10403000821785073CF43CFC1CE09717000093872F
:1040400067121CEC971700009387E7111CF0971775
:104050000000938767111CF415479717000093879A
:1040600027102324E4081CE41D47971700009387BA
:10407000470F1CE8931707029D07231004045CEC0C
:104080005CF0C14723380402233C040258F423287F
:10409000F40AA260026441018280011122E806EC68
:1040A000FD472A8463F3B7000290FD4763F3C7001E
:1040B00002908337845091C33E84FD4763E5B70483
:1040C00063E3C704B7070250DD8E36C4A2479B9551
:1040D00075011B1626018127CD8F3EC4A24781277B
:1040E000D18F3EC4EFE07FBC1864B24785273EC63F
:1040F0001C47918BFDDBA2474264E26081275CDBB9
:1041000005616FE0FFBBE2604264056182800111DE
:1041100022E806ECFD472A8463F3B7000290FD47CE
:1041200063F3C70002908337845091C33E84FD47F8
:1041300063E1B70663EFC704B70702603EC2924768
:104140009B9575011B1626018127CD8F3EC2924794
:104150008127D18F3EC2EFE05FB51C64224705275F
:104160003AC49847118B7DDB12470127D8DB3247D1
:1041700005273AC69847118B7DDBDC5B81273EC261
:10418000EFE01FB41245E2604264421541910561BF
:10419000828002C2C5BF0327C54E3971B7D7F1AAC5
:1041A00006FC22F826F44AF04EEC012793875705C7
:1041B000630BF7008149E27042744E85A274027964
:1041C000E2692161828083378554B2842E89130687
:1041D000B1006C002A848297AA8969DD9387C18027
:1041E00032479C438346B1006396E70083C78180D2
:1041F0006386D702104059CE1C68DC43894581276D
:1042000093F7C7BF631AB70893E7074085456394E0
:10421000B60093E7270059C610685CC223A6E18068
:104220002384D180630409002320E90099C02380FE
:10423000D4000327844FA147E31FF7F6834544507A
:1042400005462285EFF0BFEC8345445005462285A4
:10425000EFF0FFEB118925F183454450014622859B
:10426000EFF0FFEA856683454450C98EC216AA84E2
:10427000C19222850146EFF05FE2856693860620B3
:10428000C58E83454450C216C19201462285EFF087
:10429000DFE015B71C6495B78545E319B7F693E7DA
:1042A0001700ADB7106495BF0328C54EB7D7F1AA64
:1042B0009387570501286312F81C797126EC9394B3
:1042C000050281909307004BB387F40222F04AE87D
:1042D0004EE452E006F43A8AB68932892A84AA97D3
:1042E00083A70745812789EF938744008A07AA9708
:1042F00088478327445199CB1375F50FEFE0FF985A
:104300009377390063170900029029A0EFF07FBD71
:10431000C5BFFDFB9307004BB387F402A29783A7A9
:1043200087438127E1C7631A0A001C406380071096
:1043300018681C438127ED9B1CC31307004B338671
:10434000E4029B0609003307C40083278743FD3737
:10435000232CF7428325C743BD47812513950502CA
:1043600001916397F50C93E626002324D730930739
:104370006009E1469305004BB387F4021359090223
:10438000B306D502AA97938747078E07A297B385EE
:10439000B402AE96A29623A4261B23B03701FD5784
:1043A000631AFA0A18409387051AA2971B8607001A
:1043B000819759C7186814438126ED9A14C310CF0A
:1043C000232AF74C1C43812793E747001CC393071C
:1043D000004BB387F402A29703A7C743052723AE78
:1043E000E74203A7C7433D8B23AEE742FD57631661
:1043F000FA029307004BB387F402A29783A70745FD
:10440000812781EF9104832744518A04A294884430
:10441000B5C31375F50FEFE05F85A2700274E26417
:104420004269A269026A014545618280186411B738
:1044300061473307E502329722972320D71A05BF39
:104440001864A29514438126ED9A14C383B6854758
:1044500090C2BDB7E30D0AF6184009CB1C689C4317
:104460008127918BADF709C71868A9BF1C64C5BF28
:10447000186489BFEFF0BF9C4DB701458280832748
:1044800085436147FD37232CF5428327C5438217B7
:104490008193B387E702AA9703A7071A699B23A012
:1044A000E71A8327C5438527232EF5428327C54373
:1044B000BD8B232EF54282800328C54E1D71B7D7D0
:1044C000F1AACAE086ECA2E8A6E44EFC52F856F443
:1044D0005AF05EEC01289387570501496311F818DB
:1044E0008327454F854A63C4060093BA1700939407
:1044F000050281909307004BB387F402939916024B
:104500003A8A3689328BAE8B2A8493D91902AA97BC
:1045100083A70745812791EF938744008A07AA97CD
:10452000884783274451638807141375F50FEFE01C
:10453000CFF563130B000290639309000290937709
:104540003B0091C302901C40638A07121C6813074A
:10455000004B3387E402414593854701B306E400ED
:1045600003A6064301266315A61223A60644984314
:10457000218B11E7984301271367870098C398415F
:10458000218B631F070E1305004B3385A4024A19C4
:104590001359290313060502229503370548219E66
:1045A0009366160014C303270543A1663369D90037
:1045B0007D372328E542232A054223206503232251
:1045C000250363870A005851C1660127558F58D1CA
:1045D0009306004BB386D402378700C0135B0B02EF
:1045E000A296D8DE03B7064823A4660323A60602D4
:1045F00023B0463310C3638A0B0083360448130785
:10460000040213671700012798C202C6A146324769
:104610000127631BD7069843054901271367072025
:1046200098C39307004BB387F402A29703B7874957
:10463000BA9923BC37499307004BB387F402A2977A
:1046400083A70745812781EF9104832744518A047A
:10465000A2948844EDCB1375F50FEFE00FE1E6600F
:1046600046644A85A6640669E279427AA27A027BA8
:10467000E26B25618280EFF0DF8665BD1C64C1BD01
:10468000324705273AC6E5BD324705273AC641B746
:104690009043218A49E603B6864C13070702219FFF
:1046A000050623B4C64C904383B60648012613661C
:1046B000860090C398C2638A0B00833604481307B0
:1046C000040213671700012798C202C6A1463247A9
:1046D00001276312D704984301271367072098C363
:1046E0009307004BB387F402A297D853931607029F
:1046F00063CD060201499307004BB387F402B70666
:10470000703CA297D8530127758F15D7414723A82E
:10471000E74275590DB7324705273AC64DBF03B773
:10472000064C050723B0E64C7DB703A7C7449B069C
:10473000170023A6D7440D47E37ED7FA414723A8A5
:10474000E74279594DBFEFF08FEF11BF411117C507
:1047500003001305A5B4814506E4EFF00FC3A26082
:10476000014541018280411117C503001305050869
:10477000814506E4EFF06FC1A260014541018280EE
:104780000327C54EB7D7F1AA938757050127631BA7
:10479000F700821581919307004BB385F502AA9526
:1047A00023B0C54282800327C54EB7D7F1AA9387AD
:1047B00057050127631BF700821581919307004B72
:1047C000B385F502AA9523B4C5428280E167011141
:1047D0009387076A3EC68337855422E806EC1306A2
:1047E00071002C002A84829785476315F5040327FE
:1047F000844F91476310F704186485668327072068
:10480000C217C193DD8E2320D720856693860620AC
:10481000D58FC1662320F720FD1683274720324617
:10482000C2177D36C19332C613F6070201EAB247BA
:104830008127E5F7E260426405618280E38FD7FC5F
:10484000D5BF797122F026EC06F44AE84EE452E036
:104850002A84AE8491E1029017CA0300130A0AA4C5
:104860006305440397C70300938747F8630FF40079
:1048700097B70300938787F86309F40097B703009D
:104880009387C74C6303F4000290130600558145DB
:104890002285EF90817C03A7040983A7440923287C
:1048A000E450232AF450631B44536315074E370723
:1048B000112018E43717112018E86383074E1305F9
:1048C0000004EFF00FE213051004EFF08FE1130581
:1048D0002004EFF00FE113053004EFF08FE0130533
:1048E0005004EFF00FE08D478217A10717C70300B0
:1048F0002332F79C95478217990717C70300233F78
:10490000F79A1C6418401309041A9309040293656A
:10491000190013E61900812501261385074A138320
:10492000474A9388874A6314076685661387470258
:10493000233CE444138807403307D4002334079111
:1049400013884740233C07DB13888740233407271D
:10495000138807032330044713880764233807911B
:1049600013884764233007DD1388876423380727BB
:10497000138887022334044713880760233C079178
:1049800013884760233407DD13888760233C07279B
:104990001388C7022338044713880762233007931C
:1049A00013884762233807DD13888762233007297D
:1049B00013888701233C044713880748233407934F
:1049C00013884748233C07DD138887482334072989
:1049D0001388C701233004491388074423380793F9
:1049E00013884744233007DF138887442338072977
:1049F0002334A448233CA792233467DE233C1729A1
:104A000013070465136717008CCF012723A0E7481D
:104A1000138706B0229713671700012723A2E748E0
:104A2000138706FB229713671700012723A4E74883
:104A30001307044D136717000127D0CF23A0E744C5
:104A4000138706982297938606E313671700A296AA
:104A5000012793E6160023A2E744812623A4D74426
:104A6000184009E703A7C40A058BD8C763044403A9
:104A700097C70300938787D7630EF40097B70300A7
:104A80009387C7D76308F40097B703009387072C71
:104A90006314F42EFC40084C2320F450BC44232221
:104AA000F4509C40232CF44EBC502328F44EDC40A0
:104AB000232EF44E9C6C233CF4529C702330F4540F
:104AC0009C742334F4549C642334F4529C6823383B
:104AD000F452FC54232AF44EBC682334F450DC58BE
:104AE0002320F4529C5C2322F45283A74409638A56
:104AF00007521375F50FEFE04F991C408DE3034506
:104B0000C401EFE08F9803450402EFE00F980345DE
:104B10004402EFE08F970345C401EFE00F97B84CD4
:104B2000854763F3E7000290F84C854763F3E7009D
:104B30000290B850854763F3E7000290B854854768
:104B400063F3E7000290F854854763F3E7000290AF
:104B5000F858854763F3E7000290B85C854763F334
:104B6000E7000290F85C854763F3E7000290F8588D
:104B700085476317F75637072100130727030840B7
:104B8000B707100019C1B70790005D8F83A784088D
:104B90000326844FB7061C009B972701F58F91468B
:104BA0006315D654B716200893860680B05CD58F5F
:104BB00085466305D600F05C631CD652B72682009A
:104BC000B05493862650D58F85466314D600C166AF
:104BD000D58F83A604080C681064638406523708D6
:104BE0000010B3E7070113F8F60F83A64408C16865
:104BF000FD189B968600B3F61601B3E606018126E2
:104C0000630B054E23AED50A98C1DCC15CC201E935
:104C10008327062021678127D98F2320F62083A7A9
:104C2000040B3707187013070770FD8BD98F812786
:104C3000630B054C9CC99307000323A6F54C23A8DE
:104C4000F54CFC500D67130707809B8607006373C4
:104C5000D700BA876301054CBCC5FD57DCD59385E9
:104C6000C4032285EFF0EFB18147E14537060080AC
:104C7000C1463387B70223A0090023A40900852772
:104C8000E109229750D3E396D7FE8327C41837074C
:104C9000004061468127D98F2326F418C1468147F9
:104CA0001397070201933307C70223200900232427
:104CB00009008527610922972322071AE392D7FE6C
:104CC0002328F442232CF442232E044223200444BC
:104CD00023380448233C04482330044A0327843003
:104CE0002334044A2338044A1C4013672700233026
:104CF000044C2324E4302324044E23300442233480
:104D000004422334044CA1E70327844F91476316E0
:104D1000F7001C64256723A0E7208337845283456E
:104D20000450228582978337045303260452832537
:104D300044522285829783378453228582970327A2
:104D4000844F91476315F7002285EFF03FA8228535
:104D5000EFE09FCC1C40638A073C1C680567130783
:104D600067C898D7984301271367870098C398436B
:104D700001271367072098C3B7D7F1AA9387570570
:104D80002326F44EA2700274E2644269A269026AA8
:104D9000456182803707112818E43717112829BE8A
:104DA0002145EFD09FEE1D45EFD03FEE1945EFD0E6
:104DB000DFED1545EFD07FED0D45EFD01FED9307EB
:104DC000500482179387070417B703002334F74E64
:104DD0009307300482179387270405B697C603000C
:104DE0009386C6A06311D40A39EB3727112018E443
:104DF0003737112018E8B1CB13056004EFF06F8E40
:104E000013057004EFF0EF8D13058004EFF06F8D44
:104E100013059004EFF0EF8C1305B004EFF06F8CE6
:104E20008D478217A10717C70300233DF79C9547BD
:104E30008217990717C70300233AF79CD9B437277D
:104E4000112818E43737112875B72145EFD0FFE353
:104E50001D45EFD09FE31945EFD03FE31545EFD057
:104E6000DFE20D45EFD07FE29307B004821793870E
:104E7000670417C703002337F79893079004821736
:104E80009387870445BF97B60300938626976318D8
:104E9000D40885471CC083378A0089C783270A51F5
:104EA00023A8F40883A70409A1E7B707112017B7BF
:104EB00003002339F794B717112017B703002337DE
:104EC000F79483A7465195CF13054004EFF06F8107
:104ED0009307F0078217138747009387F70797B662
:104EE000030023B9E69217B703002339F79211BCE8
:104EF000B707112817B703002336F790B717112803
:104F00006DBF1145EFD07FD89307400417B703005A
:104F10002332F79097B7030023B20790DDB297B61C
:104F200003009386A6E2E31ED49C854614C005EFD9
:104F30003727112018E43737112018E89DCB1305C7
:104F4000A004EFE01FFA9307F007821713874700CA
:104F50009387F70797B6030023B6E6E017B7030079
:104F60002336F7E079BA3727112818E437371128A4
:104F7000E9B71145EFD07FD19307A00417B703001D
:104F80002332F7DE97B7030023B207DE9DBA146819
:104F90000567229713884602233C04452334079172
:104FA000233C07DB233407271388060323300447F9
:104FB00023380791233007DD23380727138886021B
:104FC00023340447233C0791233407DD233C072780
:104FD0001388C6022338044723300793233807DD9C
:104FE0002330072913888601233C04472334079381
:104FF000233C07DD233407291388C60123300449E5
:1050000023380793233007DF233807292334A448A4
:10501000233CA792233467DE233C17298CCED0CEC5
:1050200081B4EFE01FEC1C4C1307900BFD379B86FF
:105030000700636AD70083A684098217F9833707BC
:10504000000CBA97D4C3484CEFE0BFE95C4C13079F
:10505000900BFD379B860700636AD70083A6C409BF
:105060008217F9833707000CBA97D4C30850EFE0D2
:105070005FE71C501307900BFD379B860700636AA0
:10508000D70083A6040A8217F9833707000CBA9762
:10509000D4C34850EFE0FFE45C501307900BFD379A
:1050A0009B860700636AD70083A6440A8217F983A8
:1050B0003707000CBA97D4C3484CEFE09FE25C4C32
:1050C0001307900BFD379B860700E36AD7A483A6DE
:1050D000840A8217F9833707000CBA97D4C381B4C6
:1050E000370721001307070359BCB70620007DBC12
:1050F000B7068200F1B4232ED60A18C25CC2DCC106
:1051000001BE65DD11B61CCA930700032326F64CC9
:105110002328F64C3DB63CC6833704477D5798C3D9
:105120003DBE8567938767C829A8B45C8547033768
:1051300084466385F600F45CE395F6FEA1679387E9
:1051400067CC1CC318641C43812793E787001CC3EA
:105150001C43812793E707201CC339B982808280D2
:105160008280828085472300F60089479CC10545DF
:105170008280E16775719387076A3ECAB7470F005F
:105180009387072481467D4606E53EEC22E1CAF876
:105190002A842E89A6FCCEF4D2F0D6ECDAE8DEE43E
:1051A000E2E066FC6AF86EF4EFE03FEF8D6693860E
:1051B00006885D46CA852285EFE03FEE0146CA8536
:1051C0002285EFE0DFF4E176C98EC216C192014676
:1051D000CA852285EFE07FECE267639C076A83243F
:1051E000045081467D4693F4C40F1B8A2400137A31
:1051F000FA0FD2852285EFE05FEA85699386098000
:10520000D285014622858D24EFE03FE993F4F40F27
:1052100081467D46A6852285EFE03FE8938609809A
:105220000146A6852285EFE05FE7032B0450256A3F
:10523000814A137BCB0F93890980130A0A04BB04AC
:105240005B0193F4F40F85467D46A6852285EFE049
:10525000DFE44D46A6852285EFE07FEBB36635019E
:10526000C216C1924D46A6852285EFE01FE3814616
:105270007D46A6852285EFE05FE2D2860146A685BF
:105280002285EFE09FE18547639AFA600327045087
:105290009567A169AD6C316C896B1377C70F014AB3
:1052A0009387572B938D4979138D4CDB130C8CCB43
:1052B000938B1B45BB04470193F4F40FBE867D46D8
:1052C000A68522853AE0EFE05FDD81464946A68566
:1052D0002285EFE09FDC9306F0034546A6852285F4
:1052E000EFE0BFDBEE864146A6852285EFE0FFDAE0
:1052F0009306700F4946A6852285EFE01FDAEA86FD
:105300004546A6852285EFE05FD99386E979414637
:10531000A6852285EFE07FD881464946A68522856D
:10532000EFE0BFD7930620034546A6852285EFE030
:10533000DFD69386097A4146A6852285EFE0FFD520
:10534000930610044946A6852285EFE01FD59306F3
:1053500000414546A6852285EFE03FD49386297A11
:105360004146A6852285EFE05FD3930610044946A7
:10537000A6852285EFE07FD2930600414546A685AB
:105380002285EFE09FD19386497A4146A685228502
:10539000EFE0BFD0930610044946A6852285EFE0D2
:1053A000DFCF930640284546A6852285EFE0FFCE55
:1053B0009386697A4146A6852285EFE01FCE930643
:1053C00020094946A6852285EFE03FCDE286454685
:1053D000A6852285EFE07FCC9386897A4146A68513
:1053E0002285EFE09FCB8D464946A6852285EFE0DA
:1053F000DFCAB5669386F6FB4546A6852285EFE0B3
:10540000DFC99386A97A4146A6852285EFE0FFC8C9
:10541000930690044946A6852285EFE01FC8DE86E4
:105420004546A6852285EFE05FC79386C97A414647
:10543000A6852285EFE07FC685464946A68522855A
:10544000EFE0BFC58566938606414546A685228561
:10545000EFE0BFC49386097C4146A6852285EFE034
:10546000DFC3C1464946A6852285EFE01FC3938668
:105470008C494546A6852285EFE03FC29386897E0A
:105480004146A6852285EFE05FC193061007494695
:10549000A6852285EFE07FC039689306D87D454612
:1054A000A6852285EFE07FBF9386A97E4146A6852B
:1054B0002285EFE09FBE930690064946A685228589
:1054C000EFE0BFBD9966938626514546A6852285A5
:1054D000EFE0BFBC9386C97E4146A6852285EFE0FA
:1054E000DFBB930690044946A6852285EFE0FFBA0C
:1054F000DE864546A6852285EFE03FBA9386E97EA3
:105500004146A6852285EFE05FB9930650044946DF
:10551000A6852285EFE07FB8930600414546A68523
:105520002285EFE09FB79386097F4146A6852285B5
:10553000EFE0BFB6930610044946A6852285EFE04A
:10554000DFB5930600414546A6852285EFE0FFB40E
:105550009386297F4146A6852285EFE01FB48146C8
:105560004946A6852285EFE05FB3C1464546A6853C
:105570002285EFE09FB29386497F4146A68522852A
:10558000EFE0BFB10D6B93060BA37D46A685228588
:10559000EFE0BFB02546A6852285EFE05FB79366B2
:1055A0000504C216C1922546A6852285EFE0FFAE0E
:1055B0005946A6852285EFE09FB593660501C21680
:1055C000C1925946A6852285EFE03FAD81467D46D2
:1055D000A6852285EFE07FAC95678546812A938773
:1055E000572B0267631EDA2A03270450956CA56BBC
:1055F000116C3968A16A1377C70F8147130B0BA38E
:10560000938D5C2B138D2BF8130C0C809309F833BE
:10561000938AEA3ABB04F70093F4F40FDA867D46E6
:10562000A68522853EE43AE0EFE03FA70146A68545
:105630002285EFE0DFAD9376F5F8C216C19293E6CE
:1056400006060146A6852285EFE03FA5EE867D464B
:10565000A6852285EFE07FA4C9464946A685228516
:10566000EFE0BFA39386AC804546A6852285EFE098
:10567000DFA2EA864146A6852285EFE01FA2814689
:105680004946A6852285EFE05FA193062042454664
:10569000A6852285EFE07FA093866BF84146A6851C
:1056A0002285EFE09F9F9306C0034946A685228589
:1056B000EFE0BF9EE2864546A6852285EFE0FF9D8E
:1056C0009386ABF84146A6852285EFE01F9DA14653
:1056D0004946A6852285EFE05F9CCE864546A68595
:1056E0002285EFE09F9BD6864146A6852285EFE086
:1056F000DF9A81467D46A6852285EFE01F9AA26744
:105700008546012A0267639FD71881467D46CA8570
:105710002285EFE09F9883270452639707188566D8
:10572000938606140146CA852285EFE01F979306EB
:1057300010141146CA852285EFE03F968327045254
:10574000094793F6B7FF6387E600114793060050B9
:105750006394E700930600602546CA852285EFE042
:10576000DF93930690084946CA852285EFE0FF92B1
:10577000B166938606056146CA852285EFE0FF91F2
:10578000930630127546CA852285EFE01F91814647
:105790007946CA852285EFE05F9085467D46CA85B9
:1057A0002285EFE09F8F930620292D46CA8522850A
:1057B000EFE0BF8E4D46CA852285EFE05F95937678
:1057C000E5FFC216C1924D46CA852285EFE0FF8CE7
:1057D0005146CA852285EFE09F939376F5E6C2167F
:1057E000C1925146CA852285EFE03F8BC1467D4676
:1057F000CA852285EFE07F8ABD463546CA85228567
:10580000EFE0BF8981467D46CA852285EFE0FF88AB
:105810001C64856603A70720421741932319E10002
:1058200003572101558F2319E1000357210123A0BC
:10583000E72003572101136707202319E1000357CD
:10584000210123A0E72041677D1783A64720C216C8
:10585000C1922319D10083562101524693F60602C4
:105860007D3632CA81E6D2468126E5F28356210191
:10587000E30DD7FCAA600A64E6744679A679067A35
:10588000E66A466BA66B066CE27C427DA27D4961AE
:105890008280E267FD173EEC6FF01F94854A45B2A7
:1058A000568A09BCD287BDB313F7B7FF09469306E2
:1058B00000106308C700114781466394E700930610
:1058C00000101B87D7FF05466365E6008967DD8EFC
:1058D00091BDED37E368F6E493E60604A1B597972A
:1058E00001009387A7359C63797122F026EC06F4BA
:1058F0003EE42320C552AE842A848345055035EE0C
:105900001146EFE0DF809376F5E1C216C19226875B
:10591000814791451376170001CA13961700280096
:105920002A9603560600D18E85071B571700E3936E
:10593000B7FE8345045011462285EFE00FF68345FC
:10594000045025462285EFE08FFC9376F5CFC216F2
:1059500093F70401C19299C393E6062093F40402DD
:1059600099C093E6061083450450254622850274AB
:10597000A270E26445616FE04FF29377B6FF09478A
:10598000930400106388E700914781446314F60094
:10599000930400109B07D6FF0547636FF7028967E2
:1059A000DD8C83450450A68601462285EFE0EFEEAC
:1059B0008327045209478325045093F6B7FF638772
:1059C000E6001147930600506394E70093060060D9
:1059D000254693F5F50F59BF6D36E364C7FC2546A0
:1059E0002285EFE0CFF2896693860680C98E8345D3
:1059F0000450C216C1922546228593E40404EFE0C8
:105A0000CFE945B7E16779719387076A3EC6832777
:105A1000055206F422F026ECBDE783450550094601
:105A20002A84EFE0CFEE834504502315A1000D46F4
:105A30002285EFE0CFED85672315A100938707341A
:105A40002315F1008356A1008345045001462285A9
:105A5000C164EFE08FE4FD148345045005462285C0
:105A6000EFE0EFEA2315A1008357A100324793F737
:105A700007027D373AC681E7B2478127F1FF835796
:105A8000A100E38BF4FCA2700274E26445618280A1
:105A90008345055089677971938707716D4606F4D0
:105AA00022F03EC42A8426ECEFE06FE62313A10027
:105AB00083576100056783450450D98F2313F10094
:105AC000835661006D462285EFE02FDD1C4081EF9B
:105AD00018648327072081273EC6B247812793E7B2
:105AE00007202320F720C164FD14834504506D4630
:105AF0002285EFE0CFE12313A10083576100224705
:105B0000898B7D373AC481E7A2478127F9FF835704
:105B10006100E38CF4FCA2700274E264456182804F
:105B2000011122E82E84834505504AE0328905465A
:105B300026E406ECAA84EFE08FDD118905C983C550
:105B4000045071462685EFE08FDC9B5755001B55AE
:105B50003500858B0D892300F90005479B0705005B
:105B60006381E70211C50947638DE700014521A064
:105B7000232004000545E2604264A26402690561D5
:105B800082801CC0C5BF8280411122E09305001BAA
:105B90002A84054506E4EF60806A11C100E1A26035
:105BA0000264410182802E856F60003893170503DF
:105BB000C1936316F500BE8505456F6040680145D9
:105BC00082806F606036970703009387276498632D
:105BD00019C78327074F81C7FD372328F74E8280D7
:105BE0000DC141113C6522E006E4233405002A84FE
:105BF00099C30869829722850264A26041016F20DF
:105C0000203D828059C901114AE00339850106EC23
:105C100022E826E41305B0FB630A090283348918DD
:105C200091C8B28703D6240105EA9C609DEB2685C6
:105C3000EF60702B83478919233409181147B18B02
:105C400001456385E700657513050570E2604264F0
:105C5000A26402690561828063F5C7001396070399
:105C6000419281462685EF60F05EAA852A842685CA
:105C7000EF60702283D7240189EB9C602685233452
:105C8000F91823B00400EF6010268327091A1B05BA
:105C90000400A99F2320F91A55BF1305B0FB828089
:105CA0005D71A2E086E426FC4AF84EF452F056EC10
:105CB0005AE85EE41304B0FB0DC11C652A89130485
:105CC000B0FB81CF833A8501C1672E8BB28401443A
:105CD000938BE7FF9389F7FF89EC2285A660066422
:105CE000E2744279A279027AE26A426BA26B616144
:105CF0008280268A63F39B004E8A0335890013163F
:105D00000A0385464192DA85EF20E03A01ED83A748
:105D10008A1A1B070A00399CB99FB384444123A403
:105D2000FA1A5DBFFD57E30AF5FA130420FB75B7B5
:105D3000411122E02E84AA85228506E4EF20A02BC3
:105D400022859715000093854586EF20802B2285BC
:105D50009705000093854511EF20002B22850264F2
:105D6000A260970500009385E5E741016F20C02BF5
:105D700041C5797122F026EC4AE84EE406F452E07F
:105D8000AA84B2892E84EFF03FE02A897D55630111
:105D90000902130A89005285EF50515AA68552858F
:105DA000EF60013B11CD2685CA85EFF0DFDF7D5521
:105DB000A2700274E2644269A269026A456182804B
:105DC000014797060000938626E417060000130695
:105DD00066EDA2855285EF5091582285CE85EFF071
:105DE0003FF5979701009387E7E5233434011CE0E2
:105DF000233C240101456DBF41558280397106FC69
:105E000022F826F44AF04EEC31C9046DA1C81C7189
:105E1000B1C7B2892EE42A84EF2040192A8929C10A
:105E2000AA8522668860EFF0BFF4AA8401CD4A8576
:105E3000EF20001AE270427426850279A274E269AA
:105E4000216182800333040208684274E270A27404
:105E50004E86CA85E269027921610283C154D9BFA5
:105E6000FD54C9BF25C9797126EC046D4AE89B062B
:105E7000060083A7841A03B7841506F422F03D9F19
:105E8000368963E3E6003A89959F2AE423A4F41A4D
:105E9000138584003284EF4091573B06244142161B
:105EA000419215C2A26583A7841A03B38503B19FEB
:105EB00023A4F41A630903000274A270E264426925
:105EC000886945610283A2700274E26442690145F7
:105ED000456182800145828001C508656F20001AF6
:105EE000828005C5186D15C383478719858B91CFAF
:105EF0008327C71963D5B70093950703C191086538
:105F00008D9F232EF7186F2080128280797126ECE6
:105F10004AE84EE452E0AA8906F422F0AE843289BF
:105F2000368AEFF05FC61305800C99C413058026EE
:105F30003385A4021305850C63040A001305852626
:105F400063050900931749003E95EFF03FC62A8488
:105F50004DC5A30C950A9307850C99C4930580261B
:105F6000B384B4025CF5A69763050A007CE09387CE
:105F70008726A30D240B630309005CF82285970490
:105F800003009384A428EF60C1319C602689BDEF93
:105F90001305804FEFF09FC1170703002338A72692
:105FA00029C905472328E54EEF10A15D8860130538
:105FB0008539EFE030419060214797960100938644
:105FC000E6D2971501009385856413058639EFE0C5
:105FD000904331C1886013058539EFE03040886017
:105FE000EF1001608860EFF0DFBD9707030023BF6B
:105FF00007202285EFF0FFBC01442285A2700274C5
:10600000E2644269A269026A4561828003A7074F80
:10601000052723A8E74E81460146CE852285EF60FD
:10602000E12801C5EFF03FBAE9B722858945EF5075
:1060300091318D452285EF50F1370336090097F5F0
:1060400000009385C5D5228513068639EF50D130DF
:106050006DB721C1011122E8006D06EC26E40DC4E4
:10606000AA8413058400EF60E11803358418230C1B
:10607000041809C5EF602067233404180860A2855E
:10608000EFF07FB223BC0400E2604264A2640561C9
:106090008280828079714EE406F422F026EC4AE890
:1060A000AA893DC1046DB5C883C78419858BB5C75E
:1060B000086539C9EF20E003A1042A842685EF5042
:1060C000410A2A896352A004C1671387E7FF63541A
:1060D000A7001389F7FF637989022685EF5071467F
:1060E000B3072441416763E4E7009307F7FF637355
:1060F000F500AA87139507034191A2700274E26428
:106100004269A269456182800274A270E2644269B8
:106110004E85A26945616F20800C0145F9BF01E5FC
:10612000E9573E858280397122F8006D06FC26F41D
:106130004AF04EECC1570DCC83478419858B85CB33
:1061400083378415B2842A899309840095EB4E85A0
:106150002686EF50C11BAA8903358900EF10F0761F
:1061600063DA0902E577938707786383F902E957D1
:10617000E2704274A2740279E2693E8521618280F4
:106180004E852EE4EF40B12883378415A265E1D314
:10619000FD57F9BF8124E39D34FF0326841A81470C
:1061A000BB0496402324941AE1B779714AE806F4B7
:1061B00022F026EC4EE4695939C90065AA8435C03D
:1061C0008145228583390404EF10F06281452285E0
:1061D000EF10306381452285EF10106381452285E1
:1061E000EF1090640346040581452285EF1030626C
:1061F0008864EF10D0692A891DC1A2852685EFF039
:106200003FB303460405CE852285EF105060A2708F
:1062100002744A85E2644269A2694561828023B4BE
:1062200004002685EF10D05A0149D5B7011106ECBC
:1062300022E826E401E901442285E2604264A26486
:10624000056182802A840865EF101062AA8465D5F2
:10625000086C2105EF50117A97050000938545BA27
:1062600004E42685EF109059C1BF09C914F50865EB
:1062700097060000938666316F10D05D6955828065
:1062800001C508656F10B06582802E8601C908655A
:10629000970500009385E51B6F107057828083C7B8
:1062A0008519858B6383071A1D7156F4C16AA2E8AC
:1062B000CAE05AF05EEC62E8938BEAFF86ECA6E453
:1062C0004EFC52F866E46AE02E842A89138B85001E
:1062D000FD1A114C13062018930500310145EF609B
:1062E000A047AA8915C10C65130600315A85EF40F5
:1062F000B16CAA8463510504E97793870788630723
:10630000F5004E85EF60203E014501A84E85EF6007
:10631000803D4A85EF1090564D55E6604664A66470
:106320000669E279427AA27A027BE26B426CA26C45
:10633000026D2561828069C193150503C1914E8567
:10634000EF60A0548327441A5A85A59F2322F41A8C
:10635000EF40716009ED032A041A8327441A033DB4
:1063600089003B0AFA40634840072330041A03358A
:1063700004193DED2338341983390419638F090852
:106380000338090323380418630F080603DA0901E8
:106390000327C41981464E863B074701232EE41884
:1063A00003478419CA8513672700230CE4180335B3
:1063B0000901029821CDCD57E300F5F68327C419D2
:1063C00023383419BB87474113970702634A0702F2
:1063D000232EF41815BFD28C63D34B01D68C939522
:1063E0000C03C1916A85EF1090443B0A9A41A5BF06
:1063F000CE85EF60A05349B74E85EF60C02EADBF8C
:10640000232E041811B74E85EF60E02D83378901E4
:10641000E31CF4EEE39004ECC5BD8347841913F745
:10642000C700E31587FF93E78700230CF418833731
:106430000903E9DF0335090181460146CA858297D0
:1064400071D9CD57E312F5ECC1BD6955828019E1D0
:10645000014582800C6D011122E806EC2A8491E945
:1064600003330404631403020145E26042640561DE
:106470008280138585002EE4EF406179A265228534
:10648000EFF0FFE1CD57E31DF5FCC5B70868A28525
:106490004264E260056102835D71A2E026FC86E44D
:1064A0004AF84EF452F056EC5AE85EE483C7851978
:1064B0002A84AE84858B99CF22850664A6604279B2
:1064C000A279027AE26A426BA26BA685E2746161EC
:1064D0006FF0FFDC13858500EF50F10AAA8A08648B
:1064E000EF10B03E03A9041A630D0900033B8400BA
:1064F000C167938BE7FF9389F7FF6348200323A0CD
:10650000041A13F7FAF7E577012793870770631BDF
:10651000F7020145A6600664E2744279A279027A24
:10652000E26A426BA26B616182804A8A63D32B016B
:106530004E8A93150A03C1915A85EF10502F3B09DB
:10654000494165BF638F0A003C6481C70868C5552F
:1065500082972285EF10B0334DDD2285EF10103287
:106560004DBF83C7841993E71700238CF4181C745C
:1065700089E783B78418A9F369BF08680146A28533
:10658000829765D941BF11CD0C6D81CD01CA03330E
:10659000850263050300AA850869028323A4051AFE
:1065A000E5BD69558280797106F422F026ECB28748
:1065B00005E191C73E852EE4EF60E012A2652E85CD
:1065C000EF10F02C4555A2700274E26445618280A0
:1065D000006DAA8479DC2DE2834784190D4793F678
:1065E00037006392E6040337841801E70337041980
:1065F00019CB93E74700230CF418A2852685EFF00A
:106600001FCA0145C9B793E78700230CF418033369
:106610000503E30803FE0274A270E264AA85086918
:106620008146456102833C6581C70869CD558297E3
:106630002685EF10D025F1B70335841811E92334EE
:10664000C418A2850274A2702685E2644561A9B5CA
:10665000B285EF60A02DF5B7797106F422F026EC33
:1066600081E901442285A2700274E264456182805E
:106670002EE4AA84EF1090132A8465D52266AA8599
:106680002685EFF0EFEE79DD2285EF107014D1BF93
:10669000411122E02A84487906E419C1EF10D1455E
:1066A000487419C1EF601155686019C1EF609154C9
:1066B0002285EFF00FD10264A26041016FF0AFD0EC
:1066C00001111376F60F26E44AE0B336A000AA843F
:1066D0002E890145B28522E806ECEFF03F832A843B
:1066E00019CD91CC6861EF60515068604A86A685EB
:1066F000EF70C16201CD2285EFF09FF90144228540
:10670000E2604264A2640269056182806C600146B5
:106710002285EF50C149E5B7397106FC22F826F40D
:106720004AF04EEC52E856E45AE063140800014483
:1067300099A875DEB2840546468B4289BE8A3A8A9C
:10674000B689EFF0FFF72A847DD14875EF60F149F3
:1067500048745A86CA85EF70615C09C52285EFF0DE
:106760003FF3F1B74878EF10913848785687D286D2
:106770004E86A685EF20612175F150784C742285F4
:10678000EF50813E61FD2285E2704274A27402796D
:10679000E269426AA26A026B216182808357050026
:1067A0003307F5008527C2172302B700C1931307EB
:1067B000F00F6365F7002310F500828023100500B9
:1067C0008280186181478146C217C19309EB7947DE
:1067D000BB07F740239DF50089EE0CE182808356CC
:1067E000A701B59F9B970701BA869BD707411863FE
:1067F000E1BF8CE282801C61814699E33E85828004
:1068000003D6870198636307B600BE86BA87F5B7DB
:1068100098E219A0F5FE18E1986301CB8356A70111
:1068200003D6A701B19E231DD70023B00700F9B7F7
:10683000011126E4AE84A18122E806EC2A84EFF05F
:10684000FFF522854264E26093F5F40FA2640561CE
:10685000B1B779714EE4AE899355860006F422F003
:1068600026EC32844AE82A89EFF05FF39375F40F3F
:106870004A85EFF0BFF28144012493970403C1934A
:1068800063E98700A2700274E2644269A26945610B
:106890008280B387990083C507004A858504EFF09D
:1068A000FFEFE1BF1B1616009B954500198A4D8E20
:1068B000858A558E01119375760F22E826E44AE009
:1068C00006ECAA843A841309F007EFF03FED9375C4
:1068D000F407930700F8636389008147DD8D93F522
:1068E000F50F26851D80EFF07FEB75F0E2604264C6
:1068F000A264026905618280011122E82A84086984
:1069000026E406ECAE840DC58145EF10806F086863
:106910008145EF10607108688145EF10E06E0868EE
:10692000EF10E07601C50868EF10407523380400C9
:106930001C749DEB23340402A28517050000130587
:10694000A508EFA0C0388347A4009DC30333040209
:1069500023050400630E03000C6C22854264E26090
:106960002686A2640561028398639CE3BA87D1B747
:10697000E2604264A26405618280233805009305C9
:1069800000109DBF9B871500C217C1938527C217B2
:106990009D81C193E5FD835625000357050081279E
:1069A0003B05D740C1666364D5001B05051013176E
:1069B0000503419313050010199D3325F500134578
:1069C00015008280011122E806EC26E44AE08347A4
:1069D000A50009472A846397E704835705001547F4
:1069E0008527C217C1932310F500B387E702130769
:1069F00030066341F70222864264E260A2640269C3
:106A0000056597050000938525FC1305853805610C
:106A10006FA0A01D4264E260A26402699305101099
:106A20000561D9BD0D476393E70A047515499DC4F7
:106A300083D7A401131709034193636FF7083B0938
:106A4000F9409C601379F90F1CF49C6481C7886835
:106A5000F555829784E00474E31B09FC0357240076
:106A600059DB8357440015469B5617008527C217EC
:106A7000C1932312F400B387C70236978544635845
:106A8000F700930510102285EFF01FE7814483572C
:106A9000040015478527C217C1932310F400B3875C
:106AA000E7020357240063C2E7021309C41C8145AF
:106AB0004A85EFF03FED11C9014781460146B145D6
:106AC0004A85EFF03FDE2310040095F4E260426453
:106AD000A2640269056182803B89E740239D24010D
:106AE000B5BF035725008357050079719B06070042
:106AF00026EC4AE84EE406F422F052E03B89D74007
:106B00004166AA84AE896364C9001B090910930712
:106B10000010959F93160903C192368963C9F60048
:106B2000130900103B09E9404219135909034E8526
:106B3000EF10205C2A84630305106301091083D5DC
:106B400024009B0609001B0705001B860500014A5F
:106B500063F1E60283D7040041673B8AC740636460
:106B6000EA001B0A0A10421A135A0A0333BA4601F2
:106B70004A849105A6958D4663130A0085462286B0
:106B80004E85EF1040535DE963060A0683D7240063
:106B90003D9C421441909307F00F63E287082391D4
:106BA00084004E85EF10E05483D6240003D7040000
:106BB000C1671B8606003B04C74001256364F400DF
:106BC0001B04041013170403930700104193919FB3
:106BD0006343F7066358F5044E85EF1080512A840D
:106BE00083D52400854622869105A6954E85EF1013
:106BF000804C29E583D724003D9C421441909307A3
:106C0000F00F63E78702239184000274A270E264AC
:106C10004269026A4E85A26945616F10004B1B04F0
:106C200004F0B5BF13040010159C421441904DBFF1
:106C30001B0404F0C9BFE35AE5FE79BFA2700274D9
:106C4000E2644269A269026A456182800347A50045
:106C50008D47631CF70041111305C51C06E4EFF0D6
:106C60005FE8A260014541018280014582800347BF
:106C7000A5008D476317F704011122E84AE006ECEE
:106C800026E42A8423100500231205001309850237
:106C900081454A85EFF03FB6AA8409ED0C681305DB
:106CA000C41CEFF01FE4E2604264A2640269014583
:106CB000056182809C6481C788688145829784E0F1
:106CC000C1BF01458280397122F81304C51C26F426
:106CD0004EECAA84AE89228589454AF006FC3289A9
:106CE00036E4EFF03FCA05C9226609478146CE85E2
:106CF0002285EFF03FBBCA852285EFF07FB38C6819
:106D00002285EFF01FDE0145E2704274A274027921
:106D1000E269216182807D55C5BF01114AE006EC20
:106D200022E826E4328939EEAE842A842324050C35
:106D300097050000938585282685EF10802C970500
:106D40000000938505F32685EF10002C0946970572
:106D500000009385E5EF2685EF10602B89470565D8
:106D600097050000938545C6130585382305F40073
:106D70002286EF9090670C68231004001305C41C52
:106D8000EFF03FD6E26042644A85A2640269056181
:106D900082805D714AF81B0906004EF486E4A2E089
:106DA00026FC52F056EC5AE85EE462E0B689B387FE
:106DB000250193060010034AC50C63D1F60293091E
:106DC0000010A66006644E85E2744279A279027AC8
:106DD000E26A426BA26B026C61618280BA8A935450
:106DE0004A0009472A84639AE4028347A500638422
:106DF00097008149F9B78547E3F327FD83C91A0056
:106E0000E39109FC8D472305F5001C712310050053
:106E1000EDD30C6D014682976DB73547E38BE4FCEB
:106E20000D476390E4100327850C1B5A1A40B28B60
:106E3000137A3A006314F70E3337400106079B07B5
:106E40001700E3DE27F783C70A001396870083C77E
:106E50001A00B19FC2171B062700C1933B07C94008
:106E6000E34FF7F48D8E3386C640E36AF6F49B84D5
:106E70002700C214C190333740011B860400050768
:106E80003297E3EEE6F263080A080906E369C9F2FD
:106E9000D69403C7040083C614009B8447001B17C5
:106EA0008700359FC2142314E500C19093852A0002
:106EB0003389F500034C0900230009007C603B8BFB
:106EC0009B40421B135B0B0389C748783B063B0181
:106ED00082972300890163140B00E39C09F0B387B8
:106EE0006401E3EEFBEC5C7C487893B619005A86AB
:106EF000B3859A008297E39E09EEE30C0AEE85477C
:106F000091456303FA009545035684008146228526
:106F1000EFF07FDB7DB52314050049BF328B814440
:106F20005DBF8547E3FD27E983C71A0003C60A0052
:106F3000A2075D8E2206A1835D8E42164192E30078
:106F400006E895476397F40085469945EFF0BFD76B
:106F50004DB599476395F40081469D45C5BF9B8714
:106F6000C4FF13F7F70F9D47E3EBE7E49307900A9D
:106F7000B3D7E700858BE38407E4B2851305850268
:106F8000EFF07F872A84E30605E6A5476391F402C4
:106F90000947E306E9E21C6589CB83C62A00086934
:106FA00081456373D700CD55829700E099B51C6584
:106FB000EDDF81450869CDBF197186FCA2F8A6F402
:106FC000CAF0CEECD2E8D6E4DAE05EFC62F866F411
:106FD0006AF06EEC15E693050010EFF0FF91814A20
:106FE000E67046745685A6740679E669466AA66A0E
:106FF000066BE27B427CA27C027DE26D09618280AD
:10700000B28DB68A89C63285EF50E06DD1BFAE87AA
:10701000835506012A843E85EF106001814B81442F
:1070200081490149054B130C0010930CF00F130D0F
:10703000C40C83D70D016362F90281456E852EE48D
:10704000EF50606AA26581C52285EFF0FF8A835701
:107050002400D9D72312040061B70327840C637876
:107060009B009B968B019BD6864163DC060801271B
:107070009B87040063F9E704A29783CBC70C8524A0
:1070800093F4F40FE3779BFA1B87E4FF9D463B07DD
:10709000D70293F7FB07BB97E700B3E9F9009B978B
:1070A0008B019BD787418129E3C507F863940904C5
:1070B000014781460146A6852285EFF09FCD232416
:1070C000040C8144BDB7CA856E85EF50B039832763
:1070D000840C1B0A1900421A1B8717008217819320
:1070E000135A0A032324E40CA297AA8B2386A70C25
:1070F000528971B78327840CBB87F440BB89370161
:107100000DBFBB872741C217C19363E53701939732
:107110000903C1933B069C4042164192328A63F3B5
:10712000C7003E8A421A0127135A0A0363FEEC0085
:1071300083D72D01BB8727411B8707006356470173
:10714000139A0703135A0A034A87D286B3059D0090
:107150006E85EF5050188327840C1B070A00BB89EB
:10716000E940B99FA6852A872324F40CCE8652864F
:1071700022853B094901EFF0DFC142199B0505005B
:1071800013590903E39C05EAE39509EA0DBF03439C
:10719000A500630003141971A6F4AA842E85CEEC11
:1071A000D2E8D6E4DAE062F86AF046E43E8C86FC87
:1071B000A2F8CAF05EFC66F46EEC428D3A8AB6899B
:1071C000B28A2E8BEF708119C167F517A26863F23E
:1071D000A7024155E6704674A6740679E669466AC8
:1071E000A66A066BE27B427CA27C027DE26D0961AD
:1071F0008280931B05031B03250093DB0B033B03DA
:1072000033010149630E0A0003D96400090305290B
:1072100042191359090363130900054923932401F3
:10722000C167E378F3FA131403034190938C0403CA
:107230009387040B6394FC007D5569BF83BD0C00EC
:107240006394BC0323B4AD01138DC41C23B00D00A3
:1072500023B81D01239C2D01A2856A85EFF08FF2D2
:1072600019E523B09C01C9BF938C0C02E1B752868B
:107270008D456A852287E286EFF0CFE25E86DA8569
:107280006A85EFF00FDD63060A00CA856A85EFF0B4
:107290002FDA639D0A00EE8513858402EFF06FD22A
:1072A0008C686A85EFF0FF8301452DB7E38509FE01
:1072B0000144812909A8B3878A0083C507006A852C
:1072C0000504EFF0AFCD93170403C193E3E537FF57
:1072D000D9B7555582805971CAE82A892E85D2E0DE
:1072E00056FC5EF462F0BE8B3A8C86F4A2F0A6ECFB
:1072F000CEE45AF866ECAE8A328A36E4EF700106C4
:10730000C1671387D7FF6365A70E131B05031B0413
:10731000450033357001299C135B0B0341556359BC
:10732000F4028347A90042144190555595C38354F4
:107330006900A2668524C214C19091E0854423139C
:107340009900930909039307090B6390F9027D558E
:10735000A6700674E6644669A669066AE27A427B0C
:10736000A27B027CE26C6561828083BC090063942D
:10737000990323B88C01130CC91C23B00C0023B44F
:10738000DC00239C9C00A2856285EFF0AFDF19E54D
:1073900023B039016DBF9389090245BFA1456393AD
:1073A0000B00A9450546228781466285EFF08FCF05
:1073B000A6856285EFF0CFC75A86D6856285EFF045
:1073C0004FC9638B0B0089479375FA0F63F347012D
:1073D00089456285EFF08FBCE68513058902EFF0E1
:1073E0004FBE833509016285EFF0AFEF01458DB7E0
:1073F0004155B9BF50FD6CE154F98280197162F8B2
:1074000086FCA2F8A6F4CAF0CEECD2E8D6E4DAE024
:107410005EFC66F46AF06EEC0349A500595C6317E4
:10742000091232E4AE8B1306002D8145AA84BE8971
:107430003A8A3684EF60714283D7890103B5090225
:1074400023BC44012391F400938704039CF89387A1
:107450000405BCE893870407BCF89387040980F00F
:10746000DCE86305051003BA890263010A1003C949
:10747000090383C719031B1939001379890113699B
:10748000490099C313690902EF60516D9306F5FF36
:107490001307E00F2A84695C636AD70A937AF50FB1
:1074A0005285EF60B16B1307F00F6361A70A3924AF
:1074B000299C4214137AF50F419003B589005DC9E8
:1074C000EF60D16941671306F5FF9306E7FF136983
:1074D0000908695C63ECC6060924131D0503299C91
:1074E000135D0D036354E4064214419003B5090192
:1074F00041C5EF60B16641671306F5FF9306E7FFEC
:1075000013690904695C63E3C6040924931C050339
:10751000299C93DC0C03635BE4024214419003B5A5
:107520000900695CEF60916341672A8B6370E50233
:107530000924299C635CE40042144190938DC41C8F
:10754000A2856E85EFF00FC415E97D5CE670467488
:107550006285A6740679E669466AA66A066BE27BCE
:10756000427CA27C027DE26D09618280014A814AEF
:107570002944A1B7014D9DBF814C55B703B589037F
:107580006305050E8145EF00A06A88E8886855DD2F
:10759000A685EF0050268868014693858181EF001B
:1075A000302A2A8C6317050C2266886897F6FFFF3D
:1075B0009386E676DE85EF00F0292A8C5DE98868FF
:1075C00097F5FFFF9385A53B936B2900EF00D0252E
:1075D000054781462385E4000146228785456E855F
:1075E000EFF04FAC114697750100938525716E85BC
:1075F000EFF02FA691456E85EFF04F9ADE856E85F0
:10760000EFF0CF9983D589016E85EFF06FA283B536
:10761000090013160B0341926E85EFF08FA31377C9
:10762000490009CF83B5090256866E85EFF06FA237
:1076300083B5890252866E85EFF0AFA19B9B8B01CB
:107640009BDB8B4163D80B0083B589006A866E850E
:10765000EFF02FA013790904E30A09EE83B50901BD
:1076600066866E85EFF0EF9ED5B50145EF001010F0
:1076700029BF8868EF00902023B80400C1BD0345EE
:10768000A500751513351500828079714EE4130637
:107690000028AA89930500031305600306F422F06D
:1076A00026EC4AE8EF50400B630C050E00652A8972
:1076B0001306000381452285EF60311A93073002DB
:1076C0003785AA832300F400130505E8EF009039FD
:1076D0009B040500056513053586EF00B0380125CC
:1076E00097F7020023A097B497F7020023AEA7B242
:1076F0009BD78400A304F4029BD704012305F40262
:107700009B578500230494022306A402A306F402D7
:107710009BD484019B5705011B558501A305940249
:107720002307F402A307A40297F70200938787B008
:1077300088634E869306B007CA85EF9010264A8567
:10774000EF40707A97F7020083C7C7AC13974700E2
:10775000975703009387076CBA9703C7C700814503
:10776000170500001305E50E1B1717002386E70019
:10777000EF90E0550146970500009385850D1305B0
:10778000803EEF90804683A70900A270027417F72D
:1077900002002325F7A8E2644269A269456182805C
:1077A0008145170500001305A502EF9040520274B1
:1077B000A270E2644269A2690146970500009385C0
:1077C00025011305803E45616F902042011197F716
:1077D000020083C727A422E892071754030013046A
:1077E0006463A297886306EC15CD23A40700814645
:1077F000170600001306E6112C00EF102057ED5776
:10780000630EF50005E597F7020083C7A7A092076E
:107810003E94A2471CC42800EFF03FE7E2604264B8
:10782000056182809C473EC48127F5F78145170595
:10783000000013050502EF908049014697050000FE
:10784000938525011305803EEF90203AC1BF97F63E
:10785000020083C6269C9B87160093F7F70F054707
:107860006361F70417F702002306F79A97F70200FF
:1078700083C7479A13974700975703009387875901
:10788000BA9703C7D7001DE3984719E39C6399CFC4
:107890009307803E17F702002322F79A01456FF005
:1078A000FFF297F7020023870796C9B74111814578
:1078B000170500001305C5F197F70200238CD79434
:1078C00006E422E0EF90A04017F4020013040497AE
:1078D0000840014697050000938585EFEF90E03062
:1078E00010408967938707719B16160063ECD700D9
:1078F000637AD60097F7020023A2D794A2600264AD
:107900004101828017F70200232AF792C5BF8DC17B
:1079100097F7020083C70790139747009757030014
:107920009387474FBA9798412E8598C76FF0FFD538
:1079300001456FF0DFF11D71CAE017F9020013096C
:10794000E98E83470900A6E486ECA2E84EFC52F8D3
:1079500056F4B2846395071497F702009387078C57
:1079600094429C43638DF61275542685EF40B057C0
:107970006310041A6245EF00F00E9B090500724582
:107980009B840900EF00100EC24752471B0A0500F6
:10799000D98F8127D1C3B787AA83938717E863CC90
:1079A000F400B787557C9B870718BB89F9009BD9E2
:1079B000E9016393090622458214EF00B00A9B098E
:1079C00005003245EF00100A9B0A05004245821A65
:1079D00093DA0A02EF0010091B0405005245021455
:1079E000EF00500802150191498C13950902336587
:1079F0005501977701009387E7303305A4409C63D6
:107A000013140A020190458C3E9422950944334593
:107A100085021D8D935405423785557C1B0505183D
:107A2000259DEFB04F8C97E7020083C7A77E139781
:107A30004700975703009387E73DBA9703C7C700EE
:107A4000136717002386E70083470900A1E38145F8
:107A5000170500001305E5DFEF9060278145170546
:107A600000001305E5D6EF90802637F53600930722
:107A7000803E014697050000938585D5130505E8EE
:107A800017E70200232CF77AEF902016E660466491
:107A9000A6640669E279427AA27A25618280930718
:107AA000B007E313F7EC03D7040193070003630463
:107AB000F70041545DBD81452685EF50A01A97E738
:107AC000020083C7A7761D899DEF9147E31EF5E865
:107AD00085452685EF5000190544E30805E8E14691
