:020000040801F1
:102000009751030093818195175104001301817F3B
:10201000174502001305857097450300938585FEDB
:10202000174603001306061D63FAC5008332050038
:1020300023B055002105A105E3EAC5FE17450300BD
:102040001305451B974504009385C5CE6377B500FE
:10205000233005002105E36DB5FE172502001305A9
:10206000A5B8EF10D236EF10D255970000004111FD
:1020700006C401458145EF00C05D19A801A082801A
:0220800082805C
:08208800BA200108000000006D
:10209000411122E006E4972702009387671F2A84F4
:1020A00081C78145EF20821E9387018988633C6543
:1020B00091C382972285EF20022A97E7FEF7938744
:1020C00067F499C717250200130505B26F10323067
:1020D000828001A0357106ED16E91AE51EE1A2FC29
:1020E000AAF8AEF4B2F0B6ECBAE8BEE4C2E046FC40
:1020F00072F876F47AF07EEC054411A00524A1472D
:1021000063E88702A2850D457300300032E036E4B3
:1021100075D59B07F4FF82178193920741468A8504
:1021200017450300130585243E95EF10D253F9B7E8
:10213000EA60CA622A638A6366744675A675067683
:10214000E6664667A6670668E278427EA27E027F60
:10215000E26F0D617300203001112AEC2EE83EE49D
:10216000FD57BE851945730030006265C265A267E0
:10217000056173002030757106E516E19AFC9EF842
:10218000A2F4AAF0AEECB2E8B6E4BAE03EFC42F843
:1021900046F472F076EC7AE87EE4B707200CC04390
:1021A000012493070004630DF40293076004630C99
:1021B000F402B707200CC0C3AA608A626673C673B4
:1021C00026740675E6654666A6660667E277427877
:1021D000A278027EE26E426FA26F496173002030E6
:1021E000EF303020F9B7EF307021E1B7411106E44C
:1021F00022E0834715059BD72700858B8DCF972637
:1022000002009386A62C174403001304A423172668
:1022100002001306262C930500042285EF1050308F
:10222000930500042285EF10127C9B08050063577C
:102230001005014839A0972602009386A628E1B729
:1022400005289BD7F8419BD7C701BB8717019BD7B0
:10225000474063C507031B17480097470300938750
:10226000671EBA970945AA8590639467094573006C
:10227000300079F5014573003000F1BFA2600264BF
:1022800041018280411106E422E0556713070718D7
:102290003347E502012737060B001B06C6A6399E09
:1022A0009317060263C8070E374702001B0717ABD8
:1022B0003B47E602B7C6FDFF9B86F654BB06D70236
:1022C000359E1303405B3B5866023B080641A567F9
:1022D0009B85C7EABB55B6023B08B800B74502006C
:1022E0009B8505ABBB55B602BB05B8401308D0169D
:1022F0003BDE0503930800193B87E8023B07C70153
:102300009B8647E9BBD6D5023B08C803BBD565020F
:10231000BB05B8008D9EB19E1B962600359E0926F2
:102320009B050600930790093B56F6029B17360063
:10233000B19F1B984700BB87070189271548BBD76A
:1023400007039D9E85269307905F63E1B7060D43C3
:102350008567938707E1B347F5029305C0033348C8
:10236000B502174403001304E4C9B368B502336827
:10237000B802E145B3E7B7023B06660097250200C5
:102380009385C5192285EF10F0162285A26002649C
:1023900041018280B7C708009B87C7FB3D9FB747B5
:1023A00002009B8717AB3B47F70229B75D534DB738
:1023B000797106F422F026EC4AE84EE4AA892E84CC
:1023C000B28495CD2E85EFB0600F2A8717490300A0
:1023D00013094907CE8617260200130626F993052E
:1023E00000044A85EF10D013930500044A85EF10CE
:1023F000925F9B08050063571005014839A0172715
:1024000002001307A7F5D9B705289BD7F8419BD73A
:10241000C701BB8717019BD7474063C507031B173D
:102420004800974703009387E701BA970945AA85B3
:102430009063946709457300300079F50145730096
:102440003000F1BF1C409CC0A2700274E26442697B
:10245000A26945618280411106E422E0EFB00006E6
:1024600017440300130404FEAA861726020013066D
:102470006608930500042285EF10900A9305000476
:102480002285EF1052569B08050063521005014843
:1024900011A005289BD7F8419BD7C701BB8717011F
:1024A0009BD7474063C507031B17480097470300A6
:1024B000938747F9BA970945AA85906394670945B8
:1024C0007300300079F5014573003000F1BFA26060
:1024D000026441018280011106EC22E826E40564D1
:1024E0001B040480F337443097D703009387873663
:1024F0008863EF0070357324443009CDAA84974572
:1025000003009385A5EE9C69829771D92685EFC05B
:102510005038F1B7EF10512DEF1091340125FD57D0
:10252000630AF500B7D7030093870709BE851D45E9
:1025300073003000E2604264A26405618280011190
:1025400006EC22E826E42A84AE841725020013054F
:10255000E5F5EF1092400DE197270200938787F58C
:10256000A285906394670945730030000545E260D9
:102570004264A26405618280A685172502001305C6
:10258000E5F3EF10923D09E56FF09FA70545C5B74C
:1025900085476304F4000145D9BFA68517250200CD
:1025A000130545F1EF10723B79D12285C9B711456A
:1025B000730030009307803E3305F502B7470F00E4
:1025C000938707243355F50201258280AA87114598
:1025D0007300300037470F00130707243355E50217
:1025E00082178193898F174703002335F7C08280B4
:1025F0002A87114573003000B7470F0093870724DF
:102600003355F502974703009387C7BE9C633E95F9
:1026100011C308E38280797106F422F026EC4AE8BF
:102620004EE42E89B284B6890144637A9400EF1097
:10263000122AB30789002380A7000504FDB723B041
:1026400099000145A2700274E2644269A269456181
:1026500082805D7186E4A2E026FC4AF84EF452F0D6
:102660008008974703009387E7E1170700001307E7
:1026700087A698E317070000130707A698EF170728
:1026800000001307A7AD98FF170700001307E7AE78
:10269000B8EF73905730F3E75030F3674430930747
:1026A0000008F3A7473085679B870780F3A747306B
:1026B000F3670430EF80D0072145EF00901097D7E3
:1026C000030023B9A71897440300938424D2172842
:1026D00001001308680697170000938727870147B2
:1026E000938681823686B6852685EFC0A0632685CF
:1026F000EFC0006E2685EFC0406E97050000938501
:10270000C5D52685EFC0A07097050000938545AE1E
:102710002685EFC0207621A817450300130505CDB7
:10272000EF00D005EFF03FDB054573003000974721
:10273000030083C7B7D0918BE5D31745030013057A
:10274000E5CAEF90503231A0EFF0FFD80545730095
:10275000300017450300130565C9EF90101E6DD5B5
:10276000232404FC930684FC17060000130686C489
:10277000B685172502001305E5C0EF80405331A050
:10278000EFF07FD5054573003000832784FCEDDB37
:1027900097250200938505C10145EF60D04F97252D
:1027A0000200938525C20545EF60F04EEF60F03FD3
:1027B00031A0EFF05FD20545730030000145EFF026
:1027C0003FE3B7C7B761938787C9E3D4A7FEEF603C
:1027D000D0450145EFF0DFE1EFF0DFAA97440300B9
:1027E000938444C6AA86172602001306A6BF930543
:1027F00000042685EF10C052930500042685EF10D3
:10280000921E1B08050063510005014725A00145E4
:10281000730030009B16470097470300938787C2D9
:10282000B6970945AA8590639467094573003000FF
:1028300079DD05279B57F8419BD7C701BB87070167
:102840009BD74740E3D8E7FCF32400B0812401453F
:10285000EFF01FDA0125258DEF109202EF103207FD
:1028600097440300938404BEAA8617260200130629
:10287000E6B8930500042685EF10804A930500040E
:102880002685EF1052161B0805006351000501470D
:1028900025A00145730030009B16470097470300B1
:1028A000938747BAB6970945AA8590639467094507
:1028B0007300300079DD05279B57F8419BD7C7018E
:1028C000BB8707019BD74740E3D8E7FC9727020067
:1028D0009387C7BC9863233CE4FA98472320E4FC21
:1028E00003D7C7002312E4FC83C7E7002303F4FCEB
:1028F000EF10E27D2A8697250200938525B1130506
:1029000084FBEF10203F974403009384A4B3930605
:1029100084FB17260200130666B093050004268583
:10292000EF100040930500042685EF10D20B1B0822
:10293000050063510005014725A0014573003000E3
:102940009B164700974703009387C7AFB697094583
:10295000AA859063946709457300300079DD0527E7
:102960009B57F8419BD7C701BB8707019BD74740BF
:10297000E3D8E7FC974403009384C4AC1726020015
:102980001306C6AA930500042685EF106039930547
:1029900000042685EF1032051B0805006351000571
:1029A000014725A00145730030009B16470097475B
:1029B0000300938727A9B6970945AA859063946772
:1029C00009457300300079DD05279B57F8419BD7F7
:1029D000C701BB8707019BD74740E3D8E7FC9305B6
:1029E00084FB032584FCEF001015EF00502231A07A
:1029F000EFF07FAE054573003000EF00101F6DD97A
:102A000097440300938404A417260200130686A3A8
:102A1000930500042685EF10A03093050004268559
:102A2000EF10627C1B08050063510005014725A0DB
:102A30000145730030009B164700974703009387BA
:102A400067A0B6970945AA85906394670945730006
:102A5000300079DD05279B57F8419BD7C701BB871D
:102A600007019BD74740E3D8E7FC974403009384D2
:102A7000649D17260200130666A0930500042685B0
:102A8000EF10002A930500042685EF10C2751B087D
:102A9000050063550005014725A00145730030007E
:102AA0009B164700974703009387C799B697094538
:102AB000AA859063946709457300300079DD052786
:102AC0009B57F8419BD7C701BB8707019BD747405E
:102AD000E3D8E7FC21A0EF00501149E5054573005C
:102AE0003000EFF05F9F9744030093842490268585
:102AF000EF00C04883C714059BD72700858BF9DFFB
:102B0000EF00101069D9EF009010F1B74A85EF007F
:102B1000B0008524A14763E997041B8904004A8516
:102B2000EF00A07D83470500EDD74A85EF00E07CEC
:102B30009B85F4FF82158191920597470300938747
:102B4000E782BE953D4685050505EF10C2645DDD53
:102B50004A85EF00807ACA851061146509457300C3
:102B600030006DB785447DB7130584FBEF1082619B
:102B70000A8A93076501C19B3301F1408A89930555
:102B800084FB0A85EF10E25E0A85EF10A25F0A95CA
:102B9000972702009387079083C8070003C8170090
:102BA00083C5270003C6370083C6470003C7570005
:102BB00083C7670023001501A30005012301B500A9
:102BC000A301C5002302D500A302E5002303F500FD
:102BD000F3774430054921A0238004000529A1474B
:102BE00063E327059B07F9FF8217819392079734C8
:102BF00003009384A477BE9483C70400E5D3A6851D
:102C00004A85EFF0DF9369F94E85EF10A2579307DD
:102C1000F5FF1B070903CE972380E700A6854E85A5
:102C2000EF00500255BFF3674430528145BD8280AA
:102C3000011106EC22E826E44AE02E892E84814424
:102C400015C0035624010C6417A5030013058589DC
:102C50002695EF10422183572401BD9CC214C190D8
:102C60000060F9BF01478356090117A60300130648
:102C70006687814517E50300130545BDEF20D02287
:102C800085476319F5000145E2604264A264026968
:102C9000056182805155CDBF557186E5A2E12A8438
:102CA0009737030023BCA75499472308F504173727
:102CB00003001307A74A1C431BD587009BD50701B8
:102CC0003EDD035747009B568700231EE10A1BD6B3
:102CD00087012305F404A305A4042306B404A30672
:102CE000C4042307E404A307D4049307C05D23149A
:102CF000F404E947A308F4040A85EF208020930731
:102D0000F0033EDC8347A404230EF1028347B4049E
:102D1000A30EF1028347C404230FF1028347D404B6
:102D2000A30FF1028347E4042300F10485473ED753
:102D3000A547BEC2930700023EC2C147BEC4914729
:102D40003EC097470000938727193EEC9747000045
:102D5000938747213EF0974700009387A7293EF4C9
:102D6000974700009387C7DC3EE4974700009387AE
:102D700007013EE88347F404A300F1048A8517E5C0
:102D800003001305A5ACEF20F07517E4030013044E
:102D9000E4AB18641C438127DD9B1CC3186489477E
:102DA0002320F75A1C43812793E787001CC317068B
:102DB0000000130606E881452285EF20D06517063E
:102DC00000001306860F81452285EF2050670144DD
:102DD00025A093171400A297A6077D5781461736A2
:102DE0000300130626703E96814517E50300130580
:102DF000E5A5EF20E03F0524BD4763C88702BD4736
:102E0000E309F4FC93171400A297A6070147814633
:102E1000173603001306066D3E96814517E503003D
:102E20001305C5A2EF20C03CF9B7AE600E6469611E
:102E3000828093170603C19399E3014582807971DB
:102E400006F422F026EC4AE84EE42E8913062018F8
:102E5000BE850145EFC0202BAA8931C12A84814457
:102E600019CC93950402819103562401CA950864F4
:102E7000EF00727F83572401BD9C0060D5B797D7C0
:102E800003009387279D8863EF0080170DE1CE85AF
:102E900097D703009387079C8863EF00401701458D
:102EA000A2700274E2644269A269456182804E8523
:102EB000EFC0201EEDB7411106E422E02A849737C7
:102EC00003009387A733886309C5B2853686EFF080
:102ED0005FF62285EF202079A260026441018280A2
:102EE000F377043093070008F3B7073082809B071D
:102EF000F5FF93F7F70F1307E0026368F70041252A
:102F000085473395A7007325453082809B07F5FFE1
:102F100093F7F70F1307E0026368F7004125854731
:102F20003395A700733545308280411106E422E0D5
:102F300073240030EFF0DFFA2285A26002644101C1
:102F40008280731005308280411106E41307500619
:102F50002309E5041307E006A309E50417A7000009
:102F6000130787E518ED170700001307A7CC18F122
:102F7000EFF09FD20145A26041018280411106E439
:102F800022E02A840146814517E503001305058CDC
:102F9000EF2020130146814517E503001305058B3B
:102FA000EF20201219C985476315F5002285EFB07F
:102FB0007066A2600264410182802285EFB03069B0
:102FC000CDBF011106EC22E826E4AA846145EF009A
:102FD000F2652A8413953400EF00526508E004C4BA
:102FE00023260400FD571CC8232A04002285E26022
:102FF0004264A264056182804849133515008280CD
:103000005C4908453385A7401335150082800111BE
:1030100006EC22E826E42A84AE84EFF07FFE05E188
:103020001C4885271844BBE7E7021B8707001CC81C
:103030001C600E07BA9784E35C4885275CC8E26091
:103040004264A26405618280411106E422E02A8480
:10305000EFF09FFA0DE51C6058440E07BA9788639D
:1030600023B007005C4485271844BBE7E7025CC433
:103070005C48FD375CC8A260026441018280014562
:10308000DDBF11C28280797106F422F026EC4AE895
:103090004EE452E000182E89AA840A8A97A90300F8
:1030A000938949A48148014883C7190303C70903C9
:1030B0009946172602001306669483B50902EF505D
:1030C0005009CA8617060000130626079705000058
:1030D000938505172685EF50902983B909004E8501
:1030E000EF10420A490541993301A140CE850A8576
:1030F000EF1022080A85EF10E2080A959307F00204
:103100002300F50093073002A300F500230105001A
:1031100085474A87814609468A852685EF5090145F
:103120005281130104FDA2700274E2644269A26933
:10313000026A456182809387018103A80700FD57D9
:10314000630BF80401459B0706006356F50413174B
:10315000180042979318370097370300938707ECBE
:10316000C697986B9C676378F7023383A500931723
:103170001800C2979398370097370300938707EAA0
:10318000C6979308170023B817018347030023004D
:10319000F70005254DBF858ACDC2011106EC22E856
:1031A00026E4938741819C439B86F7FF1D47636D0F
:1031B000D700B6849397460017A50300130585C36F
:1031C0003E95834705008DC7FD57630EF8009B07AA
:1031D00018009B97270037070002BA97054798C346
:1031E000FD5723A8F180E2604264A26405618280F9
:1031F00032879B070600C14663F3F60041473284DD
:10320000131607034192EF00D27BA2871B0604002E
:103210003D476373C700BD4793960703C1929397D9
:10322000440017A703001307E7BCBA97B69723809B
:103230000700FD5723AAF1807DB78280011106ECBB
:1032400022E826E42E842E85EF00D273AA849547C7
:1032500063F1A70469151546971502009385857AD1
:103260002295EF00527315E526948347F4FF1B87E0
:1032700007FD9B87F7FC9D4663F3F6007D5723AA65
:10328000E180FD5723A8F180E2604264A2640561F9
:1032900082809547E3FA97FE1385A4FF154697159C
:1032A00002009385A5762295EF00F26E71FD2694BB
:1032B0000347F4FF9B0707001B07F7FC8D4663ECF1
:1032C000E6029B87F7FC23A8F1807D576381E70224
:1032D00097360300938686D413971700B305F7003B
:1032E00013963500B28536961062AE9690EAFD5779
:1032F00023AAF18051BFFD57F9B71B07F5FF9D4782
:1033000063EAE7001315470097A70300938787AE8A
:103310003E958280014582801B07F5FF9D4763EB48
:10332000E7001315470097A703009387A7AC3E95C6
:10333000230005008280797106F422F026EC4AE829
:103340004EE42A89AE84179403001304A479979756
:1033500003009387A77923B0070023B4070023B89D
:10336000070023BC070023B4070223B807020CE0C0
:1033700093078025231CF400971702009387876921
:103380001CF489472308F4028547A308F4022E851C
:10339000EF00525F0505EF007229AA89A685EF00AC
:1033A000525D233034039308E01D17180200130800
:1033B000E83E81470147930690071716020013065F
:1033C000E65B93057025171502001305A517EF405E
:1033D000F01108FC9737030023A627E3A2700274BC
:1033E000E2644269A26945618280411106E4179551
:1033F000030013052573EF507023A2604101828002
:10340000179503000345A5721335150082804111FD
:1034100006E4979703009387E76C0147970600003F
:10342000938666C609661306362B97350300938587
:1034300065DD179503001305E56EEF50C073A260BC
:1034400041018280011106EC22E826E4AA842E8440
:103450002E85EF0032538148014881470947931672
:103460000503C1922286A685179503001305856B77
:10347000EF50204EE2604264A26405618280637571
:10348000D600B2952380A500828082808147146196
:1034900003C706001B0707FD1377F70F2546636078
:1034A000E6021B972700B99F1B971700938716000A
:1034B0001CE183C70600B99F9B8707FDC9BF3E85F6
:1034C00082801D7186ECA2E8A6E4CAE04EFC52F8A8
:1034D00056F45AF05EEC62E866E4AA842E89328BD8
:1034E000B689BA8B3E84C28A468C93F7380091CF56
:1034F0000DCC7D14B3878B00130A1600CE86CA85C7
:1035000003C5070082945286E5B7228A93970A0280
:103510008193E37FFAFC930C1600CE86CA851305CF
:1035200000028294050A6686D5B7137C2C006310CE
:103530000C023285E6604664A6640669E279427A46
:10354000A27A027BE26B426CA26C25618280B30797
:10355000664113970A020193E3FDE7FC130416008A
:10356000CE86CA851305000282942286CDB741110A
:1035700006E4C28F468FC24E6248825813F3280079
:1035800063140306630D080013F3180063090300B6
:1035900063960F0013F3C800630303007D38139391
:1035A0000E021353030263F467027D436361F30267
:1035B0003303F700130E00032300C3018507C5B7CB
:1035C0003303F700130E00032300C301850713F331
:1035D0001800630B0300131308021353030263F56F
:1035E00067007D43E37EF3FC13F3080163050304E6
:1035F00013F30840631E030081CF821E93DE0E0288
:10360000638CFE0413130802135303026306F304CE
:10361000414363006F064143630C6F06094363082F
:103620006F087D436369F3003303F700130E000353
:103630002300C30185077D43636BF30063840F0898
:103640003303F700130ED0022300C3018507EFF008
:103650005FE7A260410182801383F7FF63090300E3
:10366000414E6304CF019A8765B7F91755B79A871A
:1036700045B713F30802E31003FA7D43E36DF3F853
:103680003303F700130E80072300C301850751BFE2
:1036900013F30802E30403F87D43E361F3F8330313
:1036A000F700130E80052300C30185079DBF7D43EE
:1036B000E369F3F63303F700130E20062300C3017A
:1036C000850785B713F34800630A03003303F70047
:1036D000130EB0022300C301850795BF13F38800C2
:1036E000E30703F63303F700130E00022300C301C0
:1036F0008507B1BF5D7186E4BE8F664F19E3137F06
:10370000FFFE93770F4081C72DC3814E81A0814E6C
:1037100035A813730F0263070304130310043B035C
:10372000C3011373F30F59331373F30F93871E0001
:10373000130E0104F29E23806EFE3353070363676A
:1037400007037D476364F702BE8E1A87337307034E
:10375000137EF30F2543E36EC3FB1B030E031373AA
:10376000F30FE9B7130310065DBFBA877AE846473F
:103770003AE446E09B0808007E881810EFF03FDF2F
:10378000A66061618280757106E522E1A6FCCAF837
:10379000CEF4D2F0D6ECDAE8DEE4E2E066FC6AF8D9
:1037A0006EF42A8AAE89328936EC3AE86384055091
:1037B0000144E26703C50700630305501307500285
:1037C000630DE50093041400CA862286CE85029A12
:1037D000E26785073EEC2684E9BF85073EEC81441D
:1037E000B9A89B0706FD93F7F70F25476371F70A02
:1037F0009307A0026303F60A014BE26783C6070042
:103800001307E002638DE60A814A62678347070077
:103810009306A0066386D71463FCF60E9306C006D3
:103820006389D7109306A0076390D71493E404101C
:1038300005073AEC15AA93E4140005073AEC626711
:10384000034607009B0706FE93F5F70FC146E3EA20
:10385000B6F893972500971602009386261CB69714
:103860009C43B697828793E4240005073AECC1BFD6
:1038700093E4440005073AECD9B793E484000507C4
:103880003AEC75BF93E4040105073AEC4DBF2808F4
:10389000EFF0DFBF1B0B05008DB7C26713878700F2
:1038A0003AE803AB070063470B00012BE26785078B
:1038B0003EECA1B793E424003B0B6041C5BF93E409
:1038C0000440138717003AEC03C717009B0707FD56
:1038D00093F7F70FA54663F8F6009307A002630A73
:1038E000F700814A1DB72808EFF05FBA9B0A050070
:1038F00029BFC267138787003AE89C43BE8A63C723
:103900000700812AE26785073EEC01B7814AD5BFEF
:1039100093068006639AD70413E6040893071700FA
:103920003EEC83461700130780066386E602B284E6
:1039300025A813E60410930717003EEC83461700F2
:103940001307C0066384E600B28439A893E4043008
:1039500085073EEC11A893E4040C85073EEC29A0F2
:1039600093E4041005073AECE26703C507009B07E0
:10397000B5FD93F6F70F130730056362D7329397BF
:103980002600171702001307A70DBA979C43BA9792
:103990008287930780076301F5029307800563051B
:1039A000F5089307F0066303F50893072006630103
:1039B000F508BD98294811A0414893078005630B7D
:1039C000F506930790066307F50093074006630327
:1039D000F500CD9893F7044091C3F99893079006AA
:1039E000630DF504930740066309F50493F704207B
:1039F000D9E793F70410F9EF93F70404638D070EEA
:103A0000C267138787003AE803C7070026E45AE035
:103A1000D688814702170193CA862286CE855285B1
:103A2000EFF05FCD2A84A1A8414841BF214871B77A
:103A3000094861B793E4040269B793F70420A1E34E
:103A400093F70410A9E393F70404ADC7C267138783
:103A500087003AE883C707009BD6F74133C7D700F2
:103A6000159F26E45AE0D6889BD7F70102170193E9
:103A7000CA862286CE855285EFF0DFC72A84E267A8
:103A800085073EEC3DB3C267138787003AE89C6325
:103A900013D7F743B346F70026E45AE0D688FD93E0
:103AA0003387E640CA862286CE855285EFF09FC4D2
:103AB0002A84F1B793F7040881CBC2671387870084
:103AC0003AE88397070049BFC267138787003AE83F
:103AD0009C4359B7C267138787003AE8986326E486
:103AE0005AE0D6888147CA862286CE855285EFF075
:103AF0007FC02A8469B793F7040881CBC267138714
:103B000087003AE803D7070011B7C2671387870019
:103B10003AE89843E5BD89888124B1C4854AC267E3
:103B2000138787003AE8930B1400CA862286CE8555
:103B300003C50700029AA9E4E26785073EEC5E84AC
:103B40008DB9130C1400CA862286CE851305000297
:103B5000029A9B870B0062849B8B17009B8A0B0049
:103B6000E3E167FF6DBF8547C5BF93841B00CA862D
:103B70005E86CE8513050002029A9B0A0400A68B7E
:103B80001B841A00E3E36AFF45BFC26713878700FF
:103B90003AE803BC0700638F0A0013970A020193F7
:103BA000E28783C6070089CA9306F7FF11C7850716
:103BB0003687C5BF7D57EDB7BB8B874193FC04406B
:103BC000812C63880C00D68763F35B01DE879B8BB7
:103BD000070089881B8D0400631F0D0221A8930D27
:103BE0001400CA862286CE8513050002029A9B8B9A
:103BF00004006E849B841B009B870400E3E16BFF41
:103C0000BE8B11A8BE8A050C93041400CA862286B6
:103C1000CE85029A268403450C0019C5E3850CFE67
:103C20009B87FAFFE3900AFE63110D02E2678507A6
:103C30003EEC41B6930A1400CA862286CE8513054F
:103C40000002029A9B8B040056849B841B00E3E3D2
:103C50006BFFE9BF93E41402C267138787003AE859
:103C6000986326E4C1473EE0D68841488147CA862A
:103C70002286CE855285EFF0FFA72A84E26785076A
:103C80003EEC05BE93041400CA862286CE85130539
:103C90005002029AE26785073EEC268419BE93041F
:103CA0001400CA862286CE85029AE26785073EEC1A
:103CB000268401B617FAFFFF130A6A7DD5BC636933
:103CC00024031306F9FFCA86CE850145029A1B0517
:103CD0000400AA600A64E6744679A679067AE66A60
:103CE000466BA66B066CE27C427DA27D49618280B8
:103CF0002286D1BF5D7106EC32F036F43AF83EFC14
:103D0000C2E0C6E418103AE4AE867D56AA8517F5DF
:103D1000FFFF13050577EFF01FA7E2606161828066
:103D20005D7106EC36F43AF83EFCC2E0C6E43810A9
:103D30003AE4B2862E86AA8517F5FFFF130565744F
:103D4000EFF07FA4E26061618280011106EC22E85D
:103D50002A84833785541306B1006C0082971DC5F1
:103D600018400DCB1C68DC43812793F7C7BFB246D0
:103D700009466385C60205466385C6020346B1004F
:103D800085466303D60205C718685CC3E2604264D7
:103D9000056182801C64DC438127C1BF93E7074033
:103DA000F1BF93E71700D9BF93E72700E9BF186475
:103DB0005CC3E9BFB84D854763F3E7000290F84D57
:103DC000854763F3E7000290B851854763F3E70046
:103DD0000290B855854763F3E7000290F855854790
:103DE00063F3E7000290F859854763F3E700029018
:103DF000B85D854763F3E7000290F85D854763F39C
:103E0000E7000290F8598547630CF704B7072100D3
:103E100093870703370710005D8F032805006305AC
:103E20000800370790005D8F8326854F9147638E8A
:103E3000F60283A785089B972701B7061C00F58F1C
:103E4000B7062000D58FB05D8546630DD602F05DC4
:103E5000630AD602B706820093862650D58F05A83E
:103E6000B70721009387270375B783A785089B971A
:103E70002701B7061C00F58FB71620089386068029
:103E8000D58FD1B7B726820093862650D58FB055EF
:103E900085466301D60A83A605088DC6370600103D
:103EA000D18F13F6F60F83A645089B968600C1684E
:103EB000FD18B3F616018126D18E6300080810693B
:103EC000232ED60A1441B5CE146998C218695CC372
:103ED00018655CC31C4189EB18658327072081277F
:103EE000A166D58F2320F72083A7050BFD8B37070D
:103EF000187013070770D98F8127184131CB1869C3
:103F00001CCB1869930700032326F74C1869232854
:103F1000F74CFC510D67130707806373F700BA87EE
:103F2000184131C318693CC71C41B1CF1C697D578A
:103F3000D8D78280C166D58FB9BF1065232ED60A27
:103F400051B7146598C218655CC318695CC359B74A
:103F500018651CCB1865930700032326F74C1865DA
:103F60002328F74C7DB718653CC77DBF1307004B6E
:103F70003387E7022A9703370747FD5614C385277F
:103F8000E356F0FE82808147E5BF797106F422F0A6
:103F900026EC4AE84EE452E02A84AE849307004BB4
:103FA000B386F502B307D50003A6074493170602AC
:103FB000819313961700B305F60013973500BA8561
:103FC00036971307071A2A97B387D500AA9783A7AE
:103FD000071A858BDDCB41499307004BB389F40267
:103FE000330A340183278A438527232CFA420C4362
:103FF000E199821581910366870002165443812658
:104000009167FD17FD8E03350A4993970602819348
:10401000AA972338FA4803388A4283270A4413951B
:104020000702019193076009B387F402AA97938767
:1040300047078E07A2979C634D8E9B8504002285BF
:10404000029883270A4485272320FA4483270A44B9
:10405000BD8B2320FA4483260A449397060281935A
:10406000939617003386F600131736003A864E975C
:104070001307071A22977D19B3073601A29783A762
:10408000071A858B99C3E31909F418641C43812727
:10409000918B91E71C43812793E747001CC3A270D3
:1040A0000274E2644269A269026A45618280011178
:1040B00006EC22E826E44AE02A84AE841309004B89
:1040C000B38725033307F5000327474393160702F9
:1040D0008192139716003697131937003E991309EA
:1040E00009022A99A1A09307004BB384F402938795
:1040F0000402A19FA29403B7044893E717001CC3CE
:10410000E2604264A2640269056182809307004B09
:10411000B387F402A29703A70743052723A8E74222
:10412000610903A74743052723AAE7429307004BEA
:10413000B387F402A29783A7074381274147E3840B
:10414000E7FA8327490013970702E35B07FA93070F
:10415000004BB387F402A29703B80742E30808FABA
:104160009307004BB387F402A29783A747431397A3
:104170000702019393076009B387F402BA97938704
:1041800047068E07A29794634A869B850400228582
:104190000298ADBF397106FC22F826F44AF04EECC5
:1041A00052E82A84AE849307004BB387F502AA979E
:1041B000054723A8E74483B9874583A709008127DA
:1041C0003EC61C41638E071603390501130A090216
:1041D0005109B2478127898B639A0716B247812715
:1041E00093F7070881CB83270900812793F70702FC
:1041F000639F0716B247812793F7D7F763830712A8
:10420000B247812793F707409DC791472320FA00C3
:104210009307004023A0F9009307004BB387F402F3
:10422000A29703A78744052723A4E74403B7074AB7
:10423000050723B0E74AB2478127918B639607149D
:10424000B2478127056713070780F98F8DCFA147F4
:104250002320FA00930700102320F90023A0E9008F
:104260001C40638D071418681C43812793E747009F
:104270001CC39307004BB387F402A29703B7874A86
:10428000050723B4E74AB24781271167F98F89CB25
:10429000916723A0F9008337044D85072338F44C38
:1042A000B24781270967F98F89CB896723A0F90075
:1042B0008337044E85072330F44EB24781270567C4
:1042C000F98F89CB856723A0F9008337844D850753
:1042D000233CF44CB2478127617713079737F98F56
:1042E0003EC6B247812795CFB247812793F707048F
:1042F000E9CF9307000423A0F90041462320C90019
:104300002320FA00138714009307004B3307F702AA
:1043100022971467850614E7B387F402A29723A8AF
:10432000C7429307004BB384F40226942328044425
:10433000E2704274A2740279E269426A2161828069
:1043400003398500130A0902510961B58947232001
:10435000FA0023A0F900A6852285EFF01FC393077A
:10436000004BB387F402A29723A4074485BD9307AB
:1043700000022320F9009307000823A0F900A68576
:104380002285EFF0DFD2BDB585472320FA009147A3
:1043900023A0F900A6852285EFF03FBF9307004BCD
:1043A000B387F402A29703B7074A050723B0E74A89
:1043B00003A78744052723A4E74459B518641C4381
:1043C000812793E747001CC36DB50290A24785275C
:1043D0003EC4EDBF01466353C00082800147BD4724
:1043E00063C6E70293161700BA96939736009306B2
:1043F000004BB306D602B697AA9723A0070223A4C0
:104400000702B7060080D4D30527D1BF7D379315A7
:104410001700B387E500939637009307004B3308E6
:10442000F602C296AA96D4528126B7070040DD8EC6
:104430002E9793173700C297AA97D4D3052661BF4A
:1044400081486353100182800148BD4763EF070331
:1044500093150802819113971500B307B70093963F
:1044600037009307004B3386F802B296AA9623A032
:10447000061AB307B70093963700B296AA9623A4FC
:10448000061A23A2061A0528C9B77D380218135840
:104490000802931618003387060193173700130795
:1044A000004B3386E802B297AA9703A7071A13674F
:1044B000270023A0E71A852869B70327854FA1475E
:1044C0006308F7000327854F9147630AF70082804E
:1044D0001C41EDFB1C65256723A0E720E5B71C41C7
:1044E000FDF71C65256723A0E720D5B7C5C9F5C929
:1044F0006DC903C3050083C8150003C8250003C6A2
:10450000350083C6450003C75500230C6550A30C36
:104510001551230D0551A30DC550230ED550A30EE3
:10452000E55083C735001B97870183C725009B97FC
:104530000701D98F812703C715001B178700D98F63
:1045400003C70500D98F03C755009B16870003C713
:104550004500558F1441A9C6146923A4F6081C69A7
:1045600023A6E7080327C54E0127B7D7F1AA9387EB
:1045700057056308F7061C6923AA07081C6923A8C6
:1045800007081C6923AE07081C6923AC07081C69CF
:1045900023A2070A1C6923A0070A8280029081BF18
:1045A000146523A4F6081C6523A6E7080327C54E57
:1045B0000127B7D7F1AA938757056304F7021C6553
:1045C00023AA07081C6523A807081C6523AE070853
:1045D0001C6523AC07081C6523A2070A1C6523A0E1
:1045E000070A8280011106EC22E826E42A84AE84C0
:1045F000130600558145EFF0D10A83A7040923284B
:10460000F45083A74409232AF45017C70300130763
:10461000E7CE630DE41017C7030013072723630BCE
:10462000E43A17B70300130767236307E46817B773
:1046300003001307A7776301E4761C40E3940702A5
:104640001C6413874702233CE444938607400567B4
:1046500022972334D79093864740233CD7DA93861A
:1046600087402334D726938607032330D446938686
:1046700007642338D790938647642330D7DC93862A
:1046800087642338D726938687022334D4469386BB
:104690000760233CD790938647602334D7DC93860A
:1046A0008760233CD7269386C7022338D446938657
:1046B00007622330D792938647622338D7DC9386EC
:1046C00087622330D72893868701233CD44693867C
:1046D00007482334D79293864748233CD7DC9386F8
:1046E00087482334D7289386C7012330D44893863C
:1046F00007442338D792938647442330D7DE9386E6
:1047000087442338D7289386074A2334D448233C48
:10471000D7929386474A2334D7DE9387874A233C30
:10472000F728E2604264A2640561828003A704095D
:104730001DE73707112018E43717112018E8638F99
:104740000724F32740F111476368F7028A07170728
:1047500002001307E745BA979C43BA978287370749
:10476000112818E43717112818E8D1BF3727000C93
:104770001C478127F99B1CC7F32740F1114763654C
:10478000F7068A07170702001307C743BA979C4327
:10479000BA9782873727000C832787088127F99BE0
:1047A0002324F708D1BF3727000C832787188127D8
:1047B000F99B2324F718C9B73727000C83278728CC
:1047C0008127F99B2324F72845BF3727000C83272F
:1047D00087388127F99B2324F73879BF3727000CC6
:1047E0001C478127F59B1CC7F32740F111476365E0
:1047F000F7068A07170702001307073EBA979C437C
:10480000BA9782873727000C832787088127F59B73
:104810002324F708D1BF3727000C83278718812767
:10482000F59B2324F718C9B73727000C832787285F
:104830008127F59B2324F72845BF3727000C8327C2
:1048400087388127F59B2324F73879BF3727000C59
:104850001C478127ED9B1CC7F32740F11147636577
:10486000F7068A071707020013074738BA979C43D1
:10487000BA9782873727000C832787088127ED9B0B
:104880002324F708D1BF3727000C832787188127F7
:10489000ED9B2324F718C9B73727000C83278728F7
:1048A0008127ED9B2324F72845BF3727000C83275A
:1048B00087388127ED9B2324F73879BF3727000CF1
:1048C0001C478127DD9B1CC7F32740F11147636616
:1048D000F7068A071707020013078732BA979C4327
:1048E000BA9782873727000C832787088127DD9BAB
:1048F0002324F708D1BF3727000C83278718812787
:10490000DD9B2324F718C9B73727000C8327872896
:104910008127DD9B2324F72845BF3727000C8327F9
:1049200087388127DD9B2324F73879BF3727000C90
:104930001C47812793F7F7FD1CC7A1471CCC99475B
:104940001CD095475CD08D475CCCC5B93727000C8F
:1049500083278708812793F7F7FD2324F708F1BF02
:104960003727000C83278718812793F7F7FD232427
:10497000F718E1B73727000C83278728812793F79B
:10498000F7FD2324F72855BF3727000C83278738E6
:10499000812793F7F7FD2324F73845B72145EFE04A
:1049A000EFD61D45EFE08FD61945EFE02FD6154520
:1049B000EFE0CFD50D45EFE06FD5930700041CCC99
:1049C000930720041CD0930730045CD09307500455
:1049D0005CCCA5B103A704091DE73727112018E413
:1049E0003737112018E8638D0728F32740F1114766
:1049F0006369F7028A07170702001307A721BA970E
:104A00009C43BA9782873727112818E43737112833
:104A100018E8D1BF3727000C1C47812793F7F7FB15
:104A20001CC7F32740F11147636AF7068A07170787
:104A300002001307671FBA979C43BA9782873727EC
:104A4000000C83278708812793F7F7FB2324F708B7
:104A5000C9BF3727000C83278718812793F7F7FBF7
:104A60002324F7187DBF3727000C83278728812749
:104A700093F7F7FB2324F7286DB73727000C83271C
:104A80008738812793F7F7FB2324F73859BF372757
:104A9000000C1C47812793F7F7F71CC7F32740F159
:104AA0001147636AF7068A071707020013070719F9
:104AB000BA979C43BA9782873727000C83278708C9
:104AC000812793F7F7F72324F708C9BF3727000C8E
:104AD00083278718812793F7F7F72324F7187DBFDB
:104AE0003727000C83278728812793F7F7F723249C
:104AF000F7286DB73727000C83278738812793F76E
:104B0000F7F72324F73859BF3727000C1C478127B4
:104B100093F7F7EF1CC7F32740F11147636AF706D5
:104B20008A07170702001307A712BA979C43BA9780
:104B300082873727000C83278708812793F7F7EFB1
:104B40002324F708C9BF3727000C8327871881273C
:104B500093F7F7EF2324F7187DBF3727000C83273F
:104B60008728812793F7F7EF2324F7286DB7372796
:104B7000000C83278738812793F7F7EF2324F73832
:104B800059BF3727000C1C47812793F7F7DF1CC755
:104B9000F32740F11147636CF7068A0717070200F5
:104BA0001307470CBA979C43BA9782873727000CA4
:104BB00083278708812793F7F7DF2324F708C9BFE6
:104BC0003727000C83278718812793F7F7DF2324E3
:104BD000F7187DBF3727000C83278728812793F795
:104BE000F7DF2324F7286DB73727000C8327873892
:104BF000812793F7F7DF2324F73859BFB726000C36
:104C00009C4681277D771307F77FF98F9CC6A147C4
:104C10001CCC99471CD095475CD08D475CCC31BCEF
:104C2000B726000C83A7860881277D771307F77FB7
:104C3000F98F23A4F608E1BFB726000C83A78618D6
:104C400081277D771307F77FF98F23A4F618C1B763
:104C5000B726000C83A7862881277D771307F77F67
:104C6000F98F23A4F62865B7B726000C83A78638EA
:104C700081277D771307F77FF98F23A4F63841BF8B
:104C80002145EFE0AFA81D45EFE04FA81945EFE043
:104C9000EFA71545EFE08FA70D45EFE02FA793078E
:104CA00060041CCC930780041CD0930790045CD054
:104CB0009307B0045CCC51B285471CC097B7030082
:104CC0009387C7639C6789CB97B703009387076374
:104CD00083A7075123A8F40883A7040985EBB70726
:104CE00011201CE4B71711201CE883274451C1CBC5
:104CF000F32740F111476368F7028A07170702009C
:104D0000130787F7BA979C43BA978287B70711288A
:104D10001CE4B71711281CE8C9BF3727000C1C4733
:104D20008127BD9B1CC791471CCC9307F0075CCC27
:104D30001CD05CD019B23727000C83278708812745
:104D4000BD9B2324F708C5B73727000C8327871896
:104D50008127BD9B2324F718F9B73727000C832739
:104D600087288127BD9B2324F72875BF3727000C90
:104D7000832787388127BD9B2324F7386DB71145DA
:104D8000EFE0CF98930740041CCC232E040023208F
:104D900004022322040255B0054718C003A70409E2
:104DA00015E73727112018E43737112018E8C9CF45
:104DB000F32740F111476369F7028A0717070200DA
:104DC0001307C7ECBA979C43BA97828737271128F5
:104DD00018E43737112818E8D9BF3727000C1C47CB
:104DE000812793F7F7BF1CC791471CCC9307F007A7
:104DF0005CCC1CD05CD091B03727000C832787088F
:104E0000812793F7F7BF2324F708F9BF3727000C52
:104E100083278718812793F7F7BF2324F718E9B76B
:104E20003727000C83278728812793F7F7BF232490
:104E3000F7285DBF3727000C83278738812793F732
:104E4000F7BF2324F7384DB71145EFE02F8C9307B8
:104E5000A0041CCC232E04002320040223220402DD
:104E60006FF0AFFD186893064702233CD444856772
:104E7000A29723B4D79023BCD7DA23B4D7269306BE
:104E800007032330D44623B8D79023B0D7DC23B808
:104E9000D726930687022334D44623BCD79023B465
:104EA000D7DC23BCD7269306C7022338D44623B0C9
:104EB000D79223B8D7DC23B0D72893068701233CA9
:104EC000D44623B4D79223BCD7DC23B4D7287107A8
:104ED0002330E44823B8E79223B0E7DE23B8E7287D
:104EE00018649306074A2334D44823BCD792930608
:104EF000474A23B4D7DE1307874A23BCE7286FF05D
:104F00005F824DC155C1411106E422E02A84130697
:104F10006007814513052504EFE0B178232A0402D8
:104F2000930700607CD085473CD47CD43CDC7CDC9F
:104F300015472324E40823000404A30004042328C1
:104F40000402232C0402232E04025CC01CC0971709
:104F50000000938707641CEC971700009387876312
:104F60001CF097170000938707631CF49717000045
:104F70009387E7611CE497170000938767611CE83B
:104F80009D47232CF408232EF4082320F40A23221F
:104F9000F40A2324F40AC1472328F40AA260026415
:104FA000410182800290B9BF8280011106EC22E8A3
:104FB000FD4763F3B7000290FD4763F3C70002901B
:104FC0000334855011C8FD4763E4B70063F8C70098
:104FD000E2604264056182802A84F5B7B707025017
:104FE000DD8E36C69B977501B705800FED8F324772
:104FF0000127D98F3EC61B162601B7077C007D8E80
:10500000B24781275D8E32C6EFD03FF2A247852797
:105010003EC418641C478127918BEDDBB247812782
:105020005CDBEFD01FF26DB7011106EC22E8FD4703
:1050300063F3B7000290FD4763F3C70002900334A7
:10504000855011CCFD4763E4B70063FCC70002C67E
:10505000324542154191E2604264056182802A84B2
:10506000D5B7B70702603EC69B977501B705800F9D
:10507000ED8F32470127D98F3EC61B162601B70791
:105080007C007D8EB24781275D8E32C6EFD0FFE96E
:10509000924785273EC218641C478127918BEDDB20
:1050A000B24781275CDBA24785273EC418641C47B2
:1050B0008127918BEDDB5C5B81273EC6EFD07FE8DB
:1050C00041BF397106FC22F826F44AF04EEC032762
:1050D000C54E0127B7D7F1AA93875705630BF70091
:1050E00001442285E2704274A2740279E26921616E
:1050F0008280B2892E89AA84833785541306B10031
:105100006C0082972A8471DD32479387C1819C436A
:105110006309F70A9440CDCE9C68DC43812793F75E
:10512000C7BF0946630AC70A0546630AC70A83451B
:10513000B10005466388C50ACDCA9468DCC223AEB7
:10514000E1808347B100238CF180630409002320B0
:10515000E900638609008347B1002380F90003A7B3
:10516000844FA147E31FF7F6054683C544502685C3
:10517000EFF09FEB054683C544502685EFF0DFEA4C
:10518000118925F1014683C544502685EFF0DFE9FA
:105190002A898566C98EC216C192014683C54450CC
:1051A0002685EFF09FE0856693860620B366D900DA
:1051B000C216C192014683C544502685EFF0FFDE3A
:1051C0000DB78346B10083C78181E395F6F485BFAF
:1051D0009C64DC438127A1B793E7074089BF93E72D
:1051E0001700B1B793E7270081BF9464DCC281BF89
:1051F0000328C54E0128B7D7F1AA93875705630442
:10520000F80001458280797106F422F026EC4AE824
:105210004EE452E0BA89368A3289AE842A84939762
:10522000050281931307004BB387E702AA9783A770
:105230000745812799EF8327455163860710939788
:105240000502819391078A07AA9703C58700EFD0CB
:10525000FFCB630D091E9377390091C3029093979A
:10526000040281931307004BB387E702A29783A739
:105270008743812763840726639A09001C4063895A
:10528000071C18681C438127ED9B1CC393970402DD
:1052900081931307004BB387E702A29703A78743C5
:1052A0007D3723ACE74283A7C74381273D47638708
:1052B000E71A1397070201931396040201929316BB
:1052C0001700BA96139736009306004BB306D60222
:1052D000369722972320271B135909421397070259
:1052E0000193939704028193131617003A9693162D
:1052F00036001306004B3386C702B296A29623A44B
:10530000261B93066009B387D702BA97938747078E
:105310008E07A29723B04701FD576387F916638D67
:1053200009181840630807201C689C438127918B4B
:10533000639407186304072018681C43812793E7C8
:1053400047001CC395AA93970502819391078A078A
:10535000AA979847F32740F19146E3ECF6EE8A07C7
:10536000970602009386C693B6979C43B6978287AA
:105370009B575700856693860680B6978A0737063F
:10538000000C3E961C429B8607008547BB97E700B2
:1053900093C7F7FF8127F58F1CC265BD9B57570048
:1053A000856693860682B6978A073706000C3E9676
:1053B0001C429B8607008547BB97E70093C7F7FF12
:1053C0008127F58F1CC271B59B5757008566938660
:1053D0000686B6978A073706000C3E961C429B86C7
:1053E00007008547BB97E70093C7F7FF8127F58F35
:1053F0001CC285B59B57570085669386068AB6976B
:105400008A073706000C3E961C429B86070085479C
:10541000BB97E70093C7F7FF8127F58F1CC215BD27
:105420009B57570085669386068EB6978A07370680
:10543000000C3E961C429B8607008547BB97E70001
:1054400093C7F7FF8127F58F1CC221B5029021B5C4
:1054500018641C438127ED9B1CC30DBD13662900F6
:1054600013970702019393950402819193161700F5
:10547000BA96139736009306004BB386D50236973B
:1054800022972320C71A89BD1C40ADC718681C434A
:105490008127ED9B1CC39307061AA29718689B8669
:1054A000070014CF18688197232AF74C18681C430B
:1054B000812793E747001CC3939704028193130746
:1054C000004BB387E702A29703A7C743052723AE84
:1054D000E74203A7C7433D8B23AEE742FD576386F0
:1054E000F9060145A2700274E2644269A269026A87
:1054F0004561828018641C438127ED9B1CC3139770
:10550000040201939307004B3307F7029307071A2E
:10551000A2972297033787479B86070014C3186416
:105520008197232AF74C18641C43812793E747008F
:105530001CC359B71C649C438127D5BB18641C430A
:10554000812793E747001CC385BF9397040281938B
:105550001307004BB387E702A29783A7074581276C
:10556000C9F38327445181CF939704028193910714
:105570008A073E9403458400EFD07F979DB79397A9
:105580000402819391078A073E941444F32740F163
:105590001147E368F7F48A0717F7010013078771CB
:1055A000BA979C43BA9782879BD756000567130723
:1055B0000780BA978A073707000C3E971C4381275C
:1055C0000546BB16D600D58F81271CC319BF9BD7B4
:1055D0005600056713070782BA978A073707000C3A
:1055E0003E971C4381270546BB16D600D58F8127E1
:1055F0001CC3C5BD9BD75600056713070786BA971E
:105600008A073707000C3E971C4381270546BB16C7
:10561000D600D58F81271CC3E9B59BD756000567F7
:105620001307078ABA978A073707000C3E971C436F
:1056300081270546BB16D600D58F81271CC355B5DB
:105640009BD7560005671307078EBA978A07370757
:10565000000C3E971C4381270546BB16D600D58F0C
:1056600081271CC3BDBD83278543FD37232CF5420D
:105670008327C543139707020193931717003386B7
:10568000E70093163600AA9683A7061AE99B23A083
:10569000F61A8327C5438527232EF5428327C54362
:1056A000BD8B232EF54282805D7186E4A2E026FC4C
:1056B0004AF84EF452F056EC5AE80328C54E012839
:1056C000B7D7F1AA93875705630EF80001494A85B9
:1056D000A6600664E2744279A279027AE26A426BB9
:1056E000616182808327454FE9CF014B63CD060C72
:1056F000BA8AB689328AAE842A843709008013496F
:10570000F9FF33F926019397050281931307004BA4
:10571000B387E702AA9783A70745812791EF8327DD
:105720004551C5C793970502819391078A07AA97A8
:1057300003C58700EFD08FFD630C0A1863130900BF
:10574000029093773A0091C302901C40638407183B
:105750000C68138745019397040281939306004BCD
:10576000B387D702A29783A707438127C1466387E0
:10577000D7169C418127A18B639D07309397040224
:1057800081931307004BB387E702B306F40003B716
:10579000864C050723B4E64C984101271367870020
:1057A00098C19387070203B70648A19F1CC381C80D
:1057B0009B0704020337044893E717001CC302C683
:1057C000B5A4054B25B7054B25B7939705028193E3
:1057D00091078A07AA979847F32740F19146E3ED8E
:1057E000F6F48A0797F601009386064EB6979C4317
:1057F000B69782879B575700856693860680B69733
:105800008A073706000C3E961C429B860700854798
:10581000BB97E70093C7F7FF8127F58F1CC229BF0D
:105820009B575700856693860682B6978A07370688
:10583000000C3E961C429B8607008547BB97E700FD
:1058400093C7F7FF8127F58F1CC2FDB59B57570003
:10585000856693860686B6978A073706000C3E96BD
:105860001C429B8607008547BB97E70093C7F7FF5D
:105870008127F58F1CC2C9B59B5757008566938653
:10588000068AB6978A073706000C3E961C429B860E
:1058900007008547BB97E70093C7F7FF8127F58F80
:1058A0001CC259BD9B57570085669386068EB697D6
:1058B0008A073706000C3E961C429B8607008547E8
:1058C000BB97E70093C7F7FF8127F58F1CC2ADB5E3
:1058D0000290ADB50C6413874501B5BD93970402E2
:1058E00081939306004BB387D702A29723A6074460
:1058F0009C418127A18B91E79C41812793E78700F9
:105900009CC11C438127A18B89C7B24785273EC60E
:10591000CDBF9397040281931307004BB387E7022F
:1059200013870702219FA29783B6074813661700C3
:1059300090C283A60743FD3623A8D74223AA074275
:1059400023A047039166FD16B3F9D900A166B3E918
:10595000D90023A23703630F0B00939704028193AE
:105960009306004BB387D702A297D4538126416692
:10597000D18ED4D3135A0A4293970402819393068B
:10598000004BB387D702A29723A4470323A607029D
:10599000B78600C0D4DF23B0573383B7074898C316
:1059A00081C89B0704020337044893E717001CC310
:1059B00002C621A0B24785273EC6B24781272147AC
:1059C000E39AE7FE9C41812793E707209CC19397C8
:1059D000040281931307004BB387E702A29703B732
:1059E00087490219135909023A9923BC27490549E5
:1059F0009397040281931307004BB387E702A297A2
:105A000083A707458127E39407CC83274451F5C733
:105A100013950402019111050A052A940345840097
:105A2000EFD0EFCC6DB1B24785273EC6B247812794
:105A30002147E39AE7FE9C41812793E707209CC119
:105A40009397040281931307004BB387E702A29751
:105A5000DC53139707026341070601499397040239
:105A600081931307004BB387E702A297DC5381278A
:105A70003707703CF98FADDF9397040281931307CA
:105A8000004BB387E702A297414723A8E742755925
:105A900085B79397040281931307004BB387E702FE
:105AA000A29703B7074C050723B0E74C9C41812719
:105AB00093E707209CC169B793970402819313076A
:105AC000004BB387E702A29703A7C74405279B06AD
:105AD000070023A6E7448D4763FFD700939704028E
:105AE00081931307004BB387E702A297414723A88E
:105AF000E7427959A5B7014995B713950402019179
:105B000011050A052A941844F32740F19146E3E071
:105B1000F6BC8A0797F601009386461CB6979C430D
:105B2000B69782879B575700856693860680B697FF
:105B30008A07B706000CBE969C42812705463B1794
:105B4000E600D98F81279CC259B69B5757008566BE
:105B500093860682B6978A07B706000CBE969C42CB
:105B6000812705463B17E600D98F81279CC285B661
:105B70009B575700856693860686B6978A07B706B1
:105B8000000CBE969C42812705463B17E600D98F44
:105B900081279CC22DBE9B57570085669386068A37
:105BA000B6978A07B706000CBE969C428127054629
:105BB0003B17E600D98F81279CC211BE9B57570027
:105BC00085669386068EB6978A07B706000CBE9642
:105BD0009C42812705463B17E600D98F81279CC24E
:105BE000FDB4411106E4814517A5030013050571B5
:105BF000EFE04FDA0145A26041018280411106E4E5
:105C0000814517B50300130565C4EFE0AFD8014522
:105C1000A260410182800327C54E0127B7D7F1AAB0
:105C2000938757056303F70082808215819193075C
:105C3000004BB385F5022E952330C542F5B70327F7
:105C4000C54E0127B7D7F1AA938757056303F7001D
:105C50008280821581919307004BB385F5022E95C2
:105C60002334C542F5B7011106EC22E82A84E16726
:105C70009387076A3EC2833785541306F1002C00D0
:105C8000829785476306F500E26042640561828081
:105C90000327844F9147E319F7FE146483A7062076
:105CA000C217C19305675D8F23A0E62014640567C2
:105CB00013070720D98F23A0F62031A08127416741
:105CC0007D17E393E7FC1C6483A74720C217C193A9
:105CD00093F6070212477D373AC2EDF212470127C9
:105CE0007DF3E9BF011106EC22E826E42A84AE84A4
:105CF000638A052097A70300938747606305F40232
:105D000097B70300938787B4630FF40097A7030046
:105D10009387C7B46309F40097A703009387070923
:105D20006303F4000290A6852285EFE0BF8B1C4040
:105D3000639C071C9B07041A0337844793E71700EB
:105D40001CC39B06046585673307F40003368792FE
:105D500093E6160014C2938607B0A19E033687DD32
:105D600093E6160014C2938607FBA19E033687288C
:105D700093E6160014C29B0604020336044893E619
:105D8000160014C29B06044D0336079393E61600D3
:105D900014C293860798A19E033607DE93E6160089
:105DA00014C2938707E3A19F0337072993E71700DE
:105DB0001CC31C4091E783A7C40A1864858B5CC789
:105DC0006387041297A70300938747536304F40281
:105DD00097B70300938787A7630EF40097A7030084
:105DE0009387C7A76308F40097A70300938707FC6E
:105DF000631FF40EFC402320F450BC442322F450D3
:105E00009C40232CF44EBC502328F44EDC40232E1F
:105E1000F44E9C6C233CF4529C702330F4549C74DC
:105E20002334F4549C642334F4529C682338F45291
:105E3000FC54232AF44EBC682334F450DC5823204D
:105E4000F4529C5C2322F45283A74409638E070E0C
:105E500003458401EFD08F8B1C40F1C7A6852285B6
:105E6000EFD05FF59385C4032285EFE02FE822850C
:105E7000EFE04FD62285EFE0AFDC2324044E01474C
:105E80006356E0641C408DEF0327844F91476306FF
:105E9000F76883378452834504502285829783377D
:105EA0000453032604528325445222858297833764
:105EB0008453228582970327844F91476303F766B3
:105EC0002285EFD09FE81C40638F076A18688567BA
:105ED000938767C81CD718681C43812793E78700FE
:105EE0001CC318681C43812793E707201CC3B7D73E
:105EF000F1AA938757052326F44EE2604264A26418
:105F0000056182800290FDB39B07041A0337844722
:105F100093E717001CC39B0704020337044893E769
:105F200017001CC379B50345C401EFC03FFE03450C
:105F30000402EFC0BFFD03454402EFC03FFD03452F
:105F4000C401EFC0BFFC19BF184CF32740F19146C4
:105F500063E0F6048A0797F60100938666D9B69740
:105F60009C43B69782879B57570085669386068029
:105F7000B6978A073706000C3E961C429B860700A0
:105F80008547BB97E70093C7F7FF8127F58F1CC2B2
:105F90001C4C03A68409FD379B8607001307900B52
:105FA0006369D700821781938A073707000CBA9775
:105FB000D0C3584CF32740F1914663E8F60E8A07A8
:105FC00097F60100938606D4B6979C43B6978287CE
:105FD0009B575700856693860682B6978A073706D1
:105FE000000C3E961C429B8607008547BB97E70046
:105FF00093C7F7FF8127F58F1CC259BF9B575700E6
:10600000856693860686B6978A073706000C3E9605
:106010001C429B8607008547BB97E70093C7F7FFA5
:106020008127F58F1CC2ADB79B57570085669386B5
:10603000068AB6978A073706000C3E961C429B8656
:1060400007008547BB97E70093C7F7FF8127F58FC8
:106050001CC23DBF9B57570085669386068EB69738
:106060008A073706000C3E961C429B860700854730
:10607000BB97E70093C7F7FF8127F58F1CC209BFC5
:106080009B575700856693860680B6978A07370622
:10609000000C3E961C429B8607008547BB97E70095
:1060A00093C7F7FF8127F58F1CC25C4C03A6C40978
:1060B000FD379B8607001307900B6369D700821793
:1060C00081938A073707000CBA97D0C31850F3277B
:1060D00040F1914663E8F60E8A0797F60100938631
:1060E000A6C3B6979C43B69782879B575700856691
:1060F00093860682B6978A073706000C3E961C42A6
:106100009B8607008547BB97E70093C7F7FF81276A
:10611000F58F1CC259BF9B5757008566938606862C
:10612000B6978A073706000C3E961C429B860700EE
:106130008547BB97E70093C7F7FF8127F58F1CC200
:10614000ADB79B57570085669386068AB6978A0730
:106150003706000C3E961C429B8607008547BB977E
:10616000E70093C7F7FF8127F58F1CC23DBF9B5700
:10617000570085669386068EB6978A073706000C09
:106180003E961C429B8607008547BB97E70093C756
:10619000F7FF8127F58F1CC209BF9B575700856603
:1061A00093860680B6978A073706000C3E961C42F7
:1061B0009B8607008547BB97E70093C7F7FF8127BA
:1061C000F58F1CC21C5003A6040AFD379B860700EE
:1061D0001307900B6369D700821781938A073707EB
:1061E000000CBA97D0C35850F32740F1914663E8AA
:1061F000F60E8A0797F60100938646B3B6979C433E
:10620000B69782879B575700856693860682B69716
:106210008A073706000C3E961C429B86070085477E
:10622000BB97E70093C7F7FF8127F58F1CC259BFC3
:106230009B575700856693860686B6978A0737066A
:10624000000C3E961C429B8607008547BB97E700E3
:1062500093C7F7FF8127F58F1CC2ADB79B57570037
:1062600085669386068AB6978A073706000C3E969F
:106270001C429B8607008547BB97E70093C7F7FF43
:106280008127F58F1CC23DBF9B57570085669386BB
:10629000068EB6978A073706000C3E961C429B86F0
:1062A00007008547BB97E70093C7F7FF8127F58F66
:1062B0001CC209BF9B575700856693860680B69718
:1062C0008A073706000C3E961C429B8607008547CE
:1062D000BB97E70093C7F7FF8127F58F1CC25C507F
:1062E00003A6440AFD379B8607001307900B6369DA
:1062F000D700821781938A073707000CBA97D0C35B
:10630000584CF32740F1914663E8F60E8A0797F65A
:1063100001009386E6A2B6979C43B69782879B5767
:106320005700856693860682B6978A073706000C63
:106330003E961C429B8607008547BB97E70093C7A4
:10634000F7FF8127F58F1CC259BF9B575700856601
:1063500093860686B6978A073706000C3E961C423F
:106360009B8607008547BB97E70093C7F7FF812708
:10637000F58F1CC2ADB79B57570085669386068A7A
:10638000B6978A073706000C3E961C429B8607008C
:106390008547BB97E70093C7F7FF8127F58F1CC29E
:1063A0003DBF9B57570085669386068EB6978A0732
:1063B0003706000C3E961C429B8607008547BB971C
:1063C000E70093C7F7FF8127F58F1CC209BF9B57D2
:1063D0005700856693860680B6978A073706000CB5
:1063E0003E961C429B8607008547BB97E70093C7F4
:1063F000F7FF8127F58F1CC25C4C03A6840AFD378A
:106400009B8607001307900BE36AD7A4821781933A
:106410008A073707000CBA97D0C389B49B57570037
:10642000856693860682B6978A073706000C3E96E5
:106430001C429B8607008547BB97E70093C7F7FF81
:106440008127F58F1CC24DBF9B57570085669386E9
:106450000686B6978A073706000C3E961C429B8636
:1064600007008547BB97E70093C7F7FF8127F58FA4
:106470001CC259B79B57570085669386068AB69704
:106480008A073706000C3E961C429B86070085470C
:10649000BB97E70093C7F7FF8127F58F1CC2A9BF01
:1064A0009B57570085669386068EB6978A073706F0
:1064B000000C3E961C429B8607008547BB97E70071
:1064C00093C7F7FF8127F58F1CC23DB71306004B1A
:1064D000B307C702A297C14623A8D74223ACD7422D
:1064E00023AE074223A0074423B0074223B4074248
:1064F00023B8074823BC074823B0074A23B4074AF8
:1065000093061700B386C602A29623B0060023B0F6
:10651000074C23B4074C0527A5B22285EFD0FFF91D
:106520008DBA2285EFF02FF461BAB45C0547638120
:10653000E602F45C638EE6001307004B3387E70244
:106540002297833687460567130767C898C221A834
:106550001307004B3387E70222978336874621676C
:10656000130767CC98C28527E351F0FC18641C43DD
:10657000812793E787001CC318641C43812793E796
:1065800007201CC3ADB28147C5B78280828082805C
:10659000828085472300F60089479CC1054582809B
:1065A000797106F422F026EC4AE84EE4AA8403242A
:1065B00005501374C40F1B0924001379F90F814689
:1065C0007D46CA85EFE07F9E8569938609800146F6
:1065D000CA852685EFE07F9D0D241374F40F814654
:1065E0007D46A2852685EFE05F9C93860980014663
:1065F000A2852685EFE07F9BA2700274E264426967
:10660000A26945618280797106F422F026EC4AE89D
:106610004EE4AA848329055093F9C90F014991A832
:106620003B8429011374F40F85467D46A285268597
:10663000EFE0BF974D46A2852685EFE0FF9E856679
:1066400093860680C98EC216C1924D46A2852685C4
:10665000EFE0BF9581467D46A2852685EFE0FF9459
:10666000A566938606040146A2852685EFE0FF9382
:1066700005298947E316F9FAA2700274E2644269B7
:10668000A26945618280397106FC22F826F44AF03D
:106690004EEC52E856E45AE0AA84032B0550137BD3
:1066A000CB0F814935AE3B043B011374F40F956663
:1066B0009386562B7D46A2852685EFE01F8F814667
:1066C0004946A2852685EFE05F8E9306F003454696
:1066D000A2852685EFE07F8D2169930649794146A1
:1066E000A2852685EFE07F8C9306700F4946A28530
:1066F0002685EFE09F8BAD6A93864ADB4546A285EF
:106700002685EFE09F8A9306E9794146A285268592
:10671000EFE0BF8981464946A2852685EFE0FF88E4
:10672000930620034546A2852685EFE01F88930641
:10673000097A4146A2852685EFE03F87930610043B
:106740004946A2852685EFE05F86930600414546CF
:10675000A2852685EFE07F859306297A4146A285AA
:106760002685EFE09F84930610044946A28526857E
:10677000EFE0BF83930600414546A2852685EFE002
:10678000DF829306497A4146A2852685EFE0FF81A4
:10679000930610044946A2852685EFE01F819306E3
:1067A00040284546A2852685EFE03F809306697A1A
:1067B0004146A2852685EFE04FFF93062009494612
:1067C000A2852685EFE06FFEB166938686CB4546AF
:1067D000A2852685EFE06FFD9306897A4146A28562
:1067E0002685EFE08FFC8D464946A2852685EFE0A1
:1067F000CFFBB5669386F6FB4546A2852685EFE07E
:10680000CFFA9306A97A4146A2852685EFE0EFF9F3
:10681000930690044946A2852685EFE00FF9096AA0
:1068200093061A454546A2852685EFE00FF89306A4
:10683000C97A4146A2852685EFE02FF7854649466D
:10684000A2852685EFE06FF685669386064145466C
:10685000A2852685EFE06FF59306097C4146A28567
:106860002685EFE08FF4C1464946A2852685EFE0F4
:10687000CFF393868A494546A2852685EFE0EFF25D
:106880009306897E4146A2852685EFE00FF29306A6
:1068900010074946A2852685EFE02FF1B966938659
:1068A000D67D4546A2852685EFE02FF09306A97E8A
:1068B0004146A2852685EFE04FEF930690064946B4
:1068C000A2852685EFE06FEE9966938626514546B0
:1068D000A2852685EFE06FED9306C97E4146A2852D
:1068E0002685EFE08FEC930690044946A285268525
:1068F000EFE0AFEB93061A454546A2852685EFE00B
:10690000CFEA9306E97E4146A2852685EFE0EFE9CE
:10691000930650044946A2852685EFE00FE99306C9
:1069200000414546A2852685EFE02FE89306097FC2
:106930004146A2852685EFE04FE7930610044946BD
:10694000A2852685EFE06FE6930600414546A285C5
:106950002685EFE08FE59306297F4146A2852685AF
:10696000EFE0AFE481464946A2852685EFE0EFE3FC
:10697000C1464546A2852685EFE02FE39306497F71
:106980004146A2852685EFE04FE28D66938606A3F9
:106990007D46A2852685EFE04FE12546A285268526
:1069A000EFE08FE893660504C216C1922546A285E2
:1069B0002685EFE08FDF5946A2852685EFE0CFE6FA
:1069C00093660501C216C1925946A2852685EFE05D
:1069D000CFDD81467D46A2852685EFE00FDD852946
:1069E0008947E392F9CCE2704274A2740279E269B9
:1069F000426AA26A026B21618280797106F422F0F8
:106A000026EC4AE84EE452E0AA84032A0550137AA1
:106A1000CA0F014909A23B042A011374F40F8D66C1
:106A2000938606A37D46A2852685EFE00FD8014612
:106A3000A2852685EFE04FDF9376F5F8C216C19266
:106A400093E606060146A2852685EFE00FD69569F6
:106A50009386592B7D46A2852685EFE00FD5C94642
:106A60004946A2852685EFE04FD49386A980454606
:106A7000A2852685EFE06FD3A569938629F8414664
:106A8000A2852685EFE06FD281464946A2852685FC
:106A9000EFE0AFD1930620424546A2852685EFE080
:106AA000CFD0938669F84146A2852685EFE0EFCFE7
:106AB0009306C0034946A2852685EFE00FCF916675
:106AC000938606804546A2852685EFE00FCE938605
:106AD000A9F84146A2852685EFE02FCDA14649467B
:106AE000A2852685EFE06FCCB9669386F6334546DE
:106AF000A2852685EFE06FCBA1669386E63A4146F4
:106B0000A2852685EFE06FCA81467D46A28526854F
:106B1000EFE0AFC905298947E31FF9EEA2700274BF
:106B2000E2644269A269026A45618280797106F471
:106B300022F026EC2A84AE84E1679387076A3EC47C
:106B4000B7470F00938707243EE081467D46EFE07C
:106B5000CFC58D66938606885D46A6852285EFE0C3
:106B6000CFC40146A6852285EFE00FCCE176C98E21
:106B7000C216C1920146A6852285EFE00FC321A06F
:106B80008267FD173EE08267E5FF2285EFF05FA197
:106B90002285EFF05FA72285EFF0FFAE2285EFF0B0
:106BA000DFE581467D46A6852285EFE00FC083277D
:106BB000045281CF09476383E7021147638DE714CD
:106BC0001947638DE714814621A8856693860614CC
:106BD0000146A6852285EFE04FBD0DA0930600106B
:106BE0001B87D7FF0546637EE612ED370547637DB9
:106BF000F7120146A6852285EFE02FBB93061014FD
:106C00001146A6852285EFE04FBA83270452094733
:106C10006388E70011476385E70019476399E71028
:106C2000930600602546A6852285EFE00FB89306FF
:106C300090084946A6852285EFE02FB7B166938676
:106C400006056146A6852285EFE02FB69306301231
:106C50007546A6852285EFE04FB581467946A68523
:106C60002285EFE08FB485467D46A6852285EFE03C
:106C7000CFB3930620292D46A6852285EFE0EFB2FB
:106C80004D46A6852285EFE02FBA9376E5FFC21622
:106C9000C1924D46A6852285EFE02FB15146A685CB
:106CA0002285EFE06FB89376F5E6C216C1925146A1
:106CB000A6852285EFE06FAFC1467D46A685228579
:106CC000EFE0AFAEBD463546A6852285EFE0EFADDD
:106CD00081467D46A6852285EFE02FAD1864832787
:106CE0000720C217C1932317F1008357E10085667F
:106CF000D58F2317F1008357E1002320F720835716
:106D0000E10093E707202317F1008357E10018649F
:106D10002320F7201DA893060010D9B59306001074
:106D2000C1B50967D98ED1B593E60604D9B59306E6
:106D300000502546A6852285EFE02FA7CDBD03573D
:106D4000E100C167FD176395E7021C6483A7472034
:106D5000C217C1932317F1008357E10093F707028D
:106D600022477D373AC4E1FFA2478127F9FFC1BF1F
:106D7000A2700274E26445618280797106F422F0A7
:106D800026EC4AE8AA843284938781809C633EE49F
:106D90002320C55201CE8947630BF6089147630350
:106DA000F60E99476303F60E014961A02E8911463C
:106DB00083450550EFE04FA79376F5E1C216C192E7
:106DC000CA8721A09BD7170005240D47636F870052
:106DD00013F7170065DB1317040201930607100869
:106DE0003297035787FFD98EF1BF114683C50450F0
:106DF0002685EFE08F9B254683C504502685EFE06E
:106E0000AFA29376F5CFC216C1929377090199C3C9
:106E100093E60620137909026304090093E606103D
:106E2000254683C504502685EFE02F98B1A01309AD
:106E300000109B07D4FF0547637CF7046D3485473A
:106E400063FC8704CA86014683C504502685EFE0AB
:106E5000CF9583A7045209476388E70011476385EC
:106E6000E7001947639FE70493060060254683C542
:106E700004502685EFE06F93A2700274E2644269C9
:106E800045618280130900106DB71309001055B7D2
:106E900089673369F9005DB713690904254683C51D
:106EA00004502685EFE04F98896693860680C98E48
:106EB000C216C192254683C504502685EFE0EF8EA9
:106EC00051B793060050254683C504502685EFE050
:106ED000CF8D5DB7011106EC22E8E1679387076A61
:106EE0003EC48327055289C7E260426405618280FF
:106EF0002A84094683450550EFE00F932317A1002C
:106F00000D46834504502285EFE00F922317A10020
:106F10008567938707342317F1008356E100014604
:106F2000834504502285EFE04F8839A00357E100E4
:106F3000C167FD17E39AE7FA0546834504502285A9
:106F4000EFE08F8E2317A1008357E10093F707022C
:106F500022477D373AC4F9FBA2478127F1FFF9B7F1
:106F6000011106EC22E82A848967938707713EC4E1
:106F70006D4683450550EFE02F8B2317A100835703
:106F8000E1000567D98F2317F1008356E1006D46B4
:106F9000834504502285EFE04F811C409DE3186437
:106FA0008327072081273EC29247812793E7072046
:106FB0002320F72039A00357E100C167FD1763952F
:106FC000E7026D46834504502285EFE0EF852317E5
:106FD000A1008357E100898B22477D373AC4E1FF46
:106FE000A2478127F9FFC1BFE26042640561828048
:106FF000011106EC22E826E44AE02A842E89B284B4
:10700000054683450550EFE02F82118901E90145CE
:10701000E2604264A2640269056182807146834530
:1070200004502285EFE04F80937705028DE32380A3
:1070300004001B5535000D891B07050085476300BB
:10704000F70211C989476301F7020145D1B78547A6
:107050002380F400F9BF23200900054555BF85476B
:107060002320F90005456DB789472320F900054520
:1070700045B78280411106E422E02A849305001B73
:107080000545EF70902411C100E1A2600264410146
:107090008280411106E42E85EF70E071A26041010B
:1070A000828093150503C191631AB500411106E46E
:1070B0000545EF709021A2604101828001458280E8
:1070C000411106E4EF70206FA2604101828097F7C2
:1070D00002009387A7139C6399C703A7074F01C7B3
:1070E0007D3723A8E74E828015C1411106E422E0D6
:1070F0002A84233405003C6599C308698297228558
:10710000EF20407FA2600264410182808280797119
:1071100006F422F026EC4AE84EE4AA842E8403B951
:1071200005196301090623B805181C79A1CB8359F9
:10713000090183A7C519BB87370123AEF51883C79B
:10714000851993E72700238CF5181C7981464A8618
:10715000AA850869829715CDCD576300F5042338B9
:1071600024198327C419BB893741232E34199397D7
:10717000090263D40702232E041805A04A85EF7084
:10718000507101A883C7851993F6C7001147638D15
:10719000E6009C6C639687020145A2700274E2646B
:1071A0004269A2694561828093E78700238CF518C4
:1071B0001C79E5D381460146AA8508698297F1BF0B
:1071C0004155E1BF51C5011106EC22E826E44AE031
:1071D000046DD1C003B4841829C48357240199E3F2
:1071E000186021C36375F60093170603C1938146A7
:1071F0003E862285EF8080272A89AA852285EF7026
:10720000D0618357240185CF1B05090083A7041A89
:10721000A99F23A0F41AE2604264A2640269056196
:10722000828001C42285EF70D06623B4041883C71E
:107230008419B18B11476393E7020145E9BF1C60D4
:1072400023B4F418233004002285EF7090646DBFDE
:107250001305B0FB82801305B0FB75BF6575130580
:10726000057055BF397106FC22F826F44AF04EEC41
:1072700052E856E425C52A8AAE8AB2841C65B5C395
:107280008339850101492DA041647D1485462286FC
:10729000D68503358A00EF20C07905E51B07040079
:1072A0003B092701818C83A7891AB99F23A4F91A66
:1072B00081CCC167F917E3E997FC1394040341906B
:1072C000F1B7FD576312F5024A85E2704274A27469
:1072D0000279E269426AA26A216182801309B0FBE5
:1072E000E5B71309B0FBCDB7130920FBF1BF41117E
:1072F00006E422E02E84AA852285EF20006297050D
:107300000000938505432285EF20E061970500008A
:10731000938505122285EF20606197050000938513
:10732000E5DC2285EF20E062A260026441018280F8
:1073300051C1797106F422F026EC4AE84EE452E09D
:1073400032892E84AA84EFF0FFD2AA8935C5130AA8
:1073500085005285EF909161A6855285EFA0015C72
:1073600021E5014797060000938606E61706000010
:10737000130686EFA2855285EF907164CA85228537
:10738000EFF0FFF62334240197E701009387879CF1
:107390001CE0233C34010145A2700274E26442699E
:1073A000A269026A45618280CE852685EFF07FCE94
:1073B0007D55DDB7415582807D55F9BF797106F461
:1073C00022F026EC4AE84EE452E029C9033A85014E
:1073D00063080A041C71B9C7B289AE842A84EF20FD
:1073E000204F2A8931C12686AA8503350A00EFF08D
:1073F0003FF4AA8405E11C704E86CA85086882970E
:10740000AA842685A2700274E2644269A269026AB3
:10741000456182804A85EF20E04DE5B7C154D5B77C
:10742000C154C5B7C154F1BFFD54E1BF25C5797141
:1074300006F422F026EC4AE84EE48339850183A75E
:10744000891A03B489153D9C9B060400B6841B076A
:1074500006006373D700BA8432842A89919F23A4DB
:10746000F91A13858900EF80110E139604034192D7
:107470003B06C4404216419205C283A7891AB19FB8
:1074800023A4F91A8337890385C3CA850335090103
:10749000829721A0014582800145A2700274E264B6
:1074A0004269A269456182800145C5BF09C9411190
:1074B00006E40865EF202052A260410182808280AC
:1074C000011106EC22E826E44AE02A892E8401A86C
:1074D000C164FD14A6854A85EF200048059C635AC7
:1074E0008000C167F917E3C587FE93140403C190B8
:1074F000D5B7E2604264A264026905618280797155
:1075000006F422F026EC4AE84EE452E02A8A2E895C
:1075100083C78519858BBDEF6955F1A8E9779387F6
:1075200007886306F502E577938707706307F50020
:10753000E577938707786317F5002685EF70703538
:10754000014555A82685EF70D03401456DA02685EC
:10755000EF7030345285EF2000484D5569A88325DF
:10756000091A8327491A9D9D03358A00EFF05FF5BC
:107570002320091A2322091A95A02338991821A03B
:107580002685EF701031CA855285EFF05FB831ED76
:107590006353800613062018930500310145EF70F0
:1075A0009036AA8421C993098900130600310C651D
:1075B0004E85EF8031712A84E34205F671D193152F
:1075C0000503C1912685EF70B0488327491AA19F12
:1075D0002322F91A4E85EF80B10151D103350919E3
:1075E00049DDA685EF70105279BFCD576305F500D0
:1075F000014511A00145A2700274E2644269A269CA
:10760000026A456182800DCD011106EC22E826E474
:107610002A84046D81CC13858400EF80C172A68515
:107620002285EFF0DFEDCD576307F5003C6099CB85
:10763000A28508688297E2604264A2640561828044
:10764000014582800145C5BF1DC91C6D8DCB03C797
:107650008719058B0DC7411106E49B86050003A71A
:10766000C7196355D70093150703C1910D9F23AE2A
:10767000E7180865EF20402EA260410182808280D9
:10768000011106EC22E826E44AE0AA842E8483C78E
:107690008519858BA1EB13858500EF90514D2A89C3
:1076A0008864EF20203B8325041AB9E5E5779387AA
:1076B00007706308F906E577938707786305F9068D
:1076C000631209048347841993E71700230CF41805
:1076D0009C7491C70146A6858868829701E9833723
:1076E0008418A1C7A2852685EFF07FE1E26042649D
:1076F000A2640269056182808864EFF07FDC232048
:10770000041A6DB7BC6481C7C55588688297268501
:10771000EF20E02D19E10145D1BF2685EF20A02BF8
:10772000DDBF0145E1B70145D1B70145C1B7011141
:1077300006EC22E826E44AE02E890DC5AA84006DF5
:107740001DC839C20335841849CDB285EF70903B0E
:10775000A2852685EFF0DFF2E2604264A26402694E
:107760000561828001C63285EF70B0124A85EF2034
:1077700000284555D5B701C63285EF7090114A856E
:10778000EF20E0264555C9BF8347841993F637009B
:107790000D47639EE6020337841801E70337041997
:1077A00019CB93E74700230CF418A2852685EFF048
:1077B0001FD5014555B793E78700230CF4181C79B2
:1077C00099CF81460146AA850869829771B73C65C1
:1077D00081C7CD55086982972685EF204021014554
:1077E000A5BF2334C418ADB71DC10C6D9DC1411197
:1077F00006E409CA1C7599C7AA8508698297A26020
:107800004101828023A4051AEFF09FE7CDBF69559F
:1078100082806955828097F702009387279F9C6337
:1078200081CB03A7074F052723A8E74E0145828098
:10783000411106E422E01305804FEFF09F8697F791
:10784000020023B5A79C3DC185472328F54EEF30A4
:10785000B17217F402001304649B086013058539A4
:10786000EF00915D0860214797D601009386065985
:107870002A86974501009385A5F413058539EF0005
:10788000F16011E50145A260026441018280086057
:1078900013058539EF00315C0860EF3051680860EE
:1078A000EFF01F82233004004155F1BF7D55E1BF49
:1078B000797106F422F026EC4AE84EE452E02A8A76
:1078C000AE843289B689EFF0CFFA81C813058026DD
:1078D0003385A4021305850C19A01305800C63845D
:1078E00009001305852663050900931749003E9595
:1078F000EFF02FFB2A8435C9A30C950A9307850C5A
:1079000099C45CF513078026B384E402A6976385C7
:1079100009007CE093878726A30D240B63030900ED
:107920005CF82285EF909151EFF0FFEE21E981465E
:107930000146B33540012285EF90915129E58945F3
:107940002285EF9031068D452285EF90710997F7DA
:1079500002009387A78B9063130686399715010061
:107960009385A5EA2285EF9031052285A2700274E5
:10797000E2644269A269026A456182802285EFF071
:107980002FF40144DDB7EFF08FF42285EFF04FF3D1
:107990000144E1BF21C1011106EC22E826E4046D97
:1079A0008DC42A8413858400EF90513E238C0418E3
:1079B00003B5841809C5EF70C06D23B40418A685FB
:1079C0008860EFF00FED233C0400E2604264A264A3
:1079D000056182808280797106F422F026EC4AE803
:1079E0004EE42A8405CD046DADC883C78419858B08
:1079F000BDC7086505C5EF20200A2A89A104268590
:107A0000EF80C13F635CA000C167F91763C2A702A2
:107A10009319050393D9090363E029032285EF2015
:107A2000201FA2700274E2644269A26945618280EB
:107A300041659309F5FFCDB72685EF90510DC167DC
:107A40006364F50041657D15330939416373250190
:107A50002A89131509034191E9B70145D9B70145B1
:107A6000C9B709C9411106E40865EF20C000A2604A
:107A7000410182800145828041C1797106F422F082
:107A800026EC4AE84EE4006D35C883478419858B9F
:107A9000A5CB3289AE89AA848337841581CB13059F
:107AA0008400EF80412A83378415A9EF4A86CE856A
:107AB00013058400EF806172AA898864EF109079C1
:107AC00063C309020129631139058327841ABB891D
:107AD00037412324341B0145A2700274E2644269D9
